{
  "contractName": "PriceConsumerV3",
  "abi": [
    {
      "inputs": [],
      "stateMutability": "nonpayable",
      "type": "constructor"
    },
    {
      "inputs": [],
      "name": "getLatestPrice",
      "outputs": [
        {
          "internalType": "int256",
          "name": "",
          "type": "int256"
        }
      ],
      "stateMutability": "view",
      "type": "function"
    }
  ],
  "bytecode": "0x60a060405234801561001057600080fd5b50739326bfa02add2366b30bacb125260af64103133173ffffffffffffffffffffffffffffffffffffffff1660808173ffffffffffffffffffffffffffffffffffffffff16815250506080516102b46100736000396000607001526102b46000f3fe608060405234801561001057600080fd5b5060043610610048576000357c0100000000000000000000000000000000000000000000000000000000900480638e15f4731461004d575b600080fd5b61005561006b565b604051610062919061013f565b60405180910390f35b6000807f000000000000000000000000000000000000000000000000000000000000000073ffffffffffffffffffffffffffffffffffffffff1663feaf968c6040518163ffffffff167c010000000000000000000000000000000000000000000000000000000002815260040160a060405180830381865afa1580156100f5573d6000803e3d6000fd5b505050506040513d601f19601f820116820180604052508101906101199190610203565b5050509150508091505090565b6000819050919050565b61013981610126565b82525050565b60006020820190506101546000830184610130565b92915050565b600080fd5b600069ffffffffffffffffffff82169050919050565b61017e8161015f565b811461018957600080fd5b50565b60008151905061019b81610175565b92915050565b6101aa81610126565b81146101b557600080fd5b50565b6000815190506101c7816101a1565b92915050565b6000819050919050565b6101e0816101cd565b81146101eb57600080fd5b50565b6000815190506101fd816101d7565b92915050565b600080600080600060a0868803121561021f5761021e61015a565b5b600061022d8882890161018c565b955050602061023e888289016101b8565b945050604061024f888289016101ee565b9350506060610260888289016101ee565b92505060806102718882890161018c565b915050929550929590935056fea26469706673582212207289c42ae27e9ec5af7dc0ab2173356280d76d06788d2ff230beea9738d0177c64736f6c634300080d0033",
  "immutableReferences": {
    "867": [
      {
        "length": 32,
        "start": 112
      }
    ]
  },
  "source": "// SPDX-License-Identifier: MIT\npragma solidity 0.8.13;\n\nimport \"@chainlink/contracts/src/v0.8/interfaces/AggregatorV3Interface.sol\";\n\ncontract PriceConsumerV3 {\n\n    AggregatorV3Interface internal immutable priceFeed;\n\n    /**\n     * Network: Kovan\n     * Aggregator: ETH/USD\n     * Address: 0x9326BFA02ADD2366b30bacB125260Af641031331\n     */\n    constructor() {\n        priceFeed = AggregatorV3Interface(0x9326BFA02ADD2366b30bacB125260Af641031331);\n    }\n\n    /**\n     * Returns the latest price\n     */\n    function getLatestPrice() public view returns (int) {\n        (\n        /*uint80 roundID*/,\n        int price,\n        /*uint startedAt*/,\n        /*uint timeStamp*/,\n        /*uint80 answeredInRound*/\n        ) = priceFeed.latestRoundData();\n\n        return price;\n    }\n}\n",
  "sourcePath": "/Users/mickael/Perso/Developpement/Alyra/staking-app/contracts/PriceConsumerV3.sol",
  "compiler": {
    "name": "solc",
    "version": "0.8.13+commit.abaa5c0e.Emscripten.clang"
  },
  "schemaVersion": "3.4.7",
  "updatedAt": "2022-05-05T13:29:43.267Z",
  "devdoc": {
    "kind": "dev",
    "methods": {},
    "version": 1
  },
  "userdoc": {
    "kind": "user",
    "methods": {
      "constructor": {
        "notice": "Network: Kovan Aggregator: ETH/USD Address: 0x9326BFA02ADD2366b30bacB125260Af641031331"
      },
      "getLatestPrice()": {
        "notice": "Returns the latest price"
      }
    },
    "version": 1
  }
}