{
  "contractName": "PriceConsumerV3",
  "abi": [
    {
      "inputs": [
        {
          "internalType": "address",
          "name": "_datafeed",
          "type": "address"
        }
      ],
      "stateMutability": "nonpayable",
      "type": "constructor"
    },
    {
      "inputs": [],
      "name": "getLatestPrice",
      "outputs": [
        {
          "internalType": "int256",
          "name": "",
          "type": "int256"
        }
      ],
      "stateMutability": "view",
      "type": "function"
    }
  ],
  "bytecode": "0x60a060405234801561001057600080fd5b506040516103ca3803806103ca833981810160405281019061003291906100cf565b8073ffffffffffffffffffffffffffffffffffffffff1660808173ffffffffffffffffffffffffffffffffffffffff1681525050506100fc565b600080fd5b600073ffffffffffffffffffffffffffffffffffffffff82169050919050565b600061009c82610071565b9050919050565b6100ac81610091565b81146100b757600080fd5b50565b6000815190506100c9816100a3565b92915050565b6000602082840312156100e5576100e461006c565b5b60006100f3848285016100ba565b91505092915050565b6080516102b46101166000396000607001526102b46000f3fe608060405234801561001057600080fd5b5060043610610048576000357c0100000000000000000000000000000000000000000000000000000000900480638e15f4731461004d575b600080fd5b61005561006b565b604051610062919061013f565b60405180910390f35b6000807f000000000000000000000000000000000000000000000000000000000000000073ffffffffffffffffffffffffffffffffffffffff1663feaf968c6040518163ffffffff167c010000000000000000000000000000000000000000000000000000000002815260040160a060405180830381865afa1580156100f5573d6000803e3d6000fd5b505050506040513d601f19601f820116820180604052508101906101199190610203565b5050509150508091505090565b6000819050919050565b61013981610126565b82525050565b60006020820190506101546000830184610130565b92915050565b600080fd5b600069ffffffffffffffffffff82169050919050565b61017e8161015f565b811461018957600080fd5b50565b60008151905061019b81610175565b92915050565b6101aa81610126565b81146101b557600080fd5b50565b6000815190506101c7816101a1565b92915050565b6000819050919050565b6101e0816101cd565b81146101eb57600080fd5b50565b6000815190506101fd816101d7565b92915050565b600080600080600060a0868803121561021f5761021e61015a565b5b600061022d8882890161018c565b955050602061023e888289016101b8565b945050604061024f888289016101ee565b9350506060610260888289016101ee565b92505060806102718882890161018c565b915050929550929590935056fea26469706673582212204639afaeb0e960810cbc62cec726146ad7c9e691abdd5a16ecfbee3f6c19cd3064736f6c634300080d0033",
  "immutableReferences": {
    "889": [
      {
        "length": 32,
        "start": 112
      }
    ]
  },
  "source": "// SPDX-License-Identifier: MIT\npragma solidity 0.8.13;\n\nimport \"@chainlink/contracts/src/v0.8/interfaces/AggregatorV3Interface.sol\";\n\ncontract PriceConsumerV3 {\n\n    AggregatorV3Interface internal immutable priceFeed;\n\n    /**\n     * https://docs.chain.link/docs/ethereum-addresses/\n     *\n     * Exemple :\n     * Kovan ETH/USD 0x9326BFA02ADD2366b30bacB125260Af641031331\n     * Kovan DAI/USD 0x777A68032a88E5A84678A77Af2CD65A7b3c0775a\n     * Kovan USDC/USD 0x9211c6b3BF41A10F78539810Cf5c64e1BB78Ec60\n     * Kovan XAU/USD 0xc8fb5684f2707C82f28595dEaC017Bfdf44EE9c5\n     */\n    constructor(address _datafeed) {\n        priceFeed = AggregatorV3Interface(_datafeed);\n    }\n\n    /**\n     * Returns the latest price\n     */\n    function getLatestPrice() external view returns (int) {\n        (\n        /*uint80 roundID*/,\n        int price,\n        /*uint startedAt*/,\n        /*uint timeStamp*/,\n        /*uint80 answeredInRound*/\n        ) = priceFeed.latestRoundData();\n\n        return price;\n    }\n}\n",
  "sourcePath": "/Users/mickael/Perso/Developpement/Alyra/staking-app/contracts/PriceConsumerV3.sol",
  "compiler": {
    "name": "solc",
    "version": "0.8.13+commit.abaa5c0e.Emscripten.clang"
  },
  "schemaVersion": "3.4.7",
  "updatedAt": "2022-05-14T18:30:14.710Z",
  "devdoc": {
    "kind": "dev",
    "methods": {},
    "version": 1
  },
  "userdoc": {
    "kind": "user",
    "methods": {
      "constructor": {
        "notice": "https://docs.chain.link/docs/ethereum-addresses/ Exemple : Kovan ETH/USD 0x9326BFA02ADD2366b30bacB125260Af641031331 Kovan DAI/USD 0x777A68032a88E5A84678A77Af2CD65A7b3c0775a Kovan USDC/USD 0x9211c6b3BF41A10F78539810Cf5c64e1BB78Ec60 Kovan XAU/USD 0xc8fb5684f2707C82f28595dEaC017Bfdf44EE9c5"
      },
      "getLatestPrice()": {
        "notice": "Returns the latest price"
      }
    },
    "version": 1
  }
}