{
  "contractName": "Staking",
  "abi": [
    {
      "inputs": [],
      "stateMutability": "nonpayable",
      "type": "constructor"
    },
    {
      "anonymous": false,
      "inputs": [
        {
          "indexed": true,
          "internalType": "uint256",
          "name": "pool",
          "type": "uint256"
        },
        {
          "indexed": true,
          "internalType": "address",
          "name": "user",
          "type": "address"
        },
        {
          "indexed": false,
          "internalType": "uint256",
          "name": "amount",
          "type": "uint256"
        }
      ],
      "name": "Claimed",
      "type": "event"
    },
    {
      "anonymous": false,
      "inputs": [
        {
          "indexed": true,
          "internalType": "address",
          "name": "previousOwner",
          "type": "address"
        },
        {
          "indexed": true,
          "internalType": "address",
          "name": "newOwner",
          "type": "address"
        }
      ],
      "name": "OwnershipTransferred",
      "type": "event"
    },
    {
      "anonymous": false,
      "inputs": [
        {
          "indexed": false,
          "internalType": "uint256",
          "name": "pool",
          "type": "uint256"
        }
      ],
      "name": "PoolCreated",
      "type": "event"
    },
    {
      "anonymous": false,
      "inputs": [
        {
          "indexed": true,
          "internalType": "uint256",
          "name": "pool",
          "type": "uint256"
        },
        {
          "indexed": true,
          "internalType": "address",
          "name": "user",
          "type": "address"
        },
        {
          "indexed": false,
          "internalType": "uint256",
          "name": "amount",
          "type": "uint256"
        }
      ],
      "name": "Staked",
      "type": "event"
    },
    {
      "anonymous": false,
      "inputs": [
        {
          "indexed": true,
          "internalType": "uint256",
          "name": "pool",
          "type": "uint256"
        },
        {
          "indexed": true,
          "internalType": "address",
          "name": "user",
          "type": "address"
        },
        {
          "indexed": false,
          "internalType": "uint256",
          "name": "amount",
          "type": "uint256"
        }
      ],
      "name": "Withdrawn",
      "type": "event"
    },
    {
      "inputs": [],
      "name": "owner",
      "outputs": [
        {
          "internalType": "address",
          "name": "",
          "type": "address"
        }
      ],
      "stateMutability": "view",
      "type": "function",
      "constant": true
    },
    {
      "inputs": [
        {
          "internalType": "uint256",
          "name": "",
          "type": "uint256"
        }
      ],
      "name": "pools",
      "outputs": [
        {
          "internalType": "uint256",
          "name": "totalStaked",
          "type": "uint256"
        },
        {
          "internalType": "uint256",
          "name": "lastUpdateBlock",
          "type": "uint256"
        },
        {
          "internalType": "uint256",
          "name": "rewardPerToken",
          "type": "uint256"
        },
        {
          "internalType": "uint256",
          "name": "rewardPerBlock",
          "type": "uint256"
        },
        {
          "internalType": "contract IERC20",
          "name": "stakingToken",
          "type": "address"
        },
        {
          "internalType": "contract IERC20",
          "name": "rewardToken",
          "type": "address"
        },
        {
          "internalType": "contract PriceConsumerV3",
          "name": "rewardTokenDataFeed",
          "type": "address"
        },
        {
          "internalType": "contract PriceConsumerV3",
          "name": "stakingTokenDataFeed",
          "type": "address"
        }
      ],
      "stateMutability": "view",
      "type": "function",
      "constant": true
    },
    {
      "inputs": [],
      "name": "renounceOwnership",
      "outputs": [],
      "stateMutability": "nonpayable",
      "type": "function"
    },
    {
      "inputs": [
        {
          "internalType": "address",
          "name": "newOwner",
          "type": "address"
        }
      ],
      "name": "transferOwnership",
      "outputs": [],
      "stateMutability": "nonpayable",
      "type": "function"
    },
    {
      "inputs": [
        {
          "internalType": "address",
          "name": "_tokenToStake",
          "type": "address"
        },
        {
          "internalType": "address",
          "name": "_tokenReward",
          "type": "address"
        },
        {
          "internalType": "uint256",
          "name": "_rewardPerBlock",
          "type": "uint256"
        },
        {
          "internalType": "address",
          "name": "_stakingTokenDataFeedAddress",
          "type": "address"
        },
        {
          "internalType": "address",
          "name": "_rewardTokenDataFeedAddress",
          "type": "address"
        }
      ],
      "name": "createPool",
      "outputs": [],
      "stateMutability": "nonpayable",
      "type": "function"
    },
    {
      "inputs": [
        {
          "internalType": "uint256",
          "name": "_poolId",
          "type": "uint256"
        },
        {
          "internalType": "uint256",
          "name": "_amount",
          "type": "uint256"
        }
      ],
      "name": "deposit",
      "outputs": [],
      "stateMutability": "nonpayable",
      "type": "function"
    },
    {
      "inputs": [
        {
          "internalType": "uint256",
          "name": "_poolId",
          "type": "uint256"
        },
        {
          "internalType": "uint256",
          "name": "_amount",
          "type": "uint256"
        }
      ],
      "name": "withdraw",
      "outputs": [],
      "stateMutability": "nonpayable",
      "type": "function"
    },
    {
      "inputs": [
        {
          "internalType": "uint256",
          "name": "_poolId",
          "type": "uint256"
        }
      ],
      "name": "claim",
      "outputs": [],
      "stateMutability": "nonpayable",
      "type": "function"
    },
    {
      "inputs": [
        {
          "internalType": "uint256",
          "name": "_poolId",
          "type": "uint256"
        }
      ],
      "name": "getRewardToClaim",
      "outputs": [
        {
          "internalType": "uint256",
          "name": "",
          "type": "uint256"
        }
      ],
      "stateMutability": "view",
      "type": "function",
      "constant": true
    },
    {
      "inputs": [
        {
          "internalType": "uint256",
          "name": "_poolId",
          "type": "uint256"
        }
      ],
      "name": "getPendingReward",
      "outputs": [
        {
          "internalType": "uint256",
          "name": "",
          "type": "uint256"
        }
      ],
      "stateMutability": "view",
      "type": "function",
      "constant": true
    },
    {
      "inputs": [
        {
          "internalType": "uint256",
          "name": "_poolId",
          "type": "uint256"
        },
        {
          "internalType": "address",
          "name": "_address",
          "type": "address"
        }
      ],
      "name": "getUserBalance",
      "outputs": [
        {
          "internalType": "uint256",
          "name": "",
          "type": "uint256"
        }
      ],
      "stateMutability": "view",
      "type": "function",
      "constant": true
    },
    {
      "inputs": [
        {
          "internalType": "uint256",
          "name": "_poolId",
          "type": "uint256"
        }
      ],
      "name": "getPoolBalance",
      "outputs": [
        {
          "internalType": "uint256",
          "name": "",
          "type": "uint256"
        }
      ],
      "stateMutability": "view",
      "type": "function",
      "constant": true
    },
    {
      "inputs": [
        {
          "internalType": "uint256",
          "name": "_poolId",
          "type": "uint256"
        }
      ],
      "name": "getRewardPrice",
      "outputs": [
        {
          "internalType": "int256",
          "name": "",
          "type": "int256"
        }
      ],
      "stateMutability": "view",
      "type": "function",
      "constant": true
    },
    {
      "inputs": [
        {
          "internalType": "uint256",
          "name": "_poolId",
          "type": "uint256"
        }
      ],
      "name": "getTokenPrice",
      "outputs": [
        {
          "internalType": "int256",
          "name": "",
          "type": "int256"
        }
      ],
      "stateMutability": "view",
      "type": "function",
      "constant": true
    },
    {
      "inputs": [
        {
          "internalType": "uint256",
          "name": "_poolId",
          "type": "uint256"
        }
      ],
      "name": "getRemainingRewards",
      "outputs": [
        {
          "internalType": "uint256",
          "name": "",
          "type": "uint256"
        }
      ],
      "stateMutability": "view",
      "type": "function",
      "constant": true
    }
  ],
  "bytecode": "0x60806040523480156200001157600080fd5b50620000446200002f6200004a640100000000026401000000009004565b62000052640100000000026401000000009004565b62000116565b600033905090565b60008060009054906101000a900473ffffffffffffffffffffffffffffffffffffffff169050816000806101000a81548173ffffffffffffffffffffffffffffffffffffffff021916908373ffffffffffffffffffffffffffffffffffffffff1602179055508173ffffffffffffffffffffffffffffffffffffffff168173ffffffffffffffffffffffffffffffffffffffff167f8be0079c531659141344cd1fd0a4f28419497f9722a3daafe3b4186f6b6457e060405160405180910390a35050565b6132a580620001266000396000f3fe60806040523480156200001157600080fd5b506004361062000129576000357c0100000000000000000000000000000000000000000000000000000000900480638da5cb5b11620000c2578063cdfb6cf3116200008c578063cdfb6cf31462000307578063e2bbb158146200033d578063ed1375d5146200035d578063f2fde38b14620003935762000129565b80638da5cb5b146200023c578063a4958845146200025e578063ac4afa381462000294578063c457fb3714620002d15762000129565b80636a07f36611620001045780636a07f36614620001a4578063715018a614620001da5780637211bbc914620001e65780638b96598e146200021c5762000129565b8063379607f5146200012e578063441a3e70146200014e578063541894c3146200016e575b600080fd5b6200014c600480360381019062000146919062002213565b620003b3565b005b6200016c600480360381019062000166919062002245565b620004b1565b005b6200018c600480360381019062000186919062002213565b620007f1565b6040516200019b9190620022a7565b60405180910390f35b620001c26004803603810190620001bc919062002213565b6200091c565b604051620001d19190620022d5565b60405180910390f35b620001e4620009c5565b005b620002046004803603810190620001fe919062002213565b62000a56565b604051620002139190620022d5565b60405180910390f35b6200023a600480360381019062000234919062002357565b62000b61565b005b62000246620010b9565b604051620002559190620023f0565b60405180910390f35b6200027c600480360381019062000276919062002213565b620010e2565b6040516200028b9190620022d5565b60405180910390f35b620002b26004803603810190620002ac919062002213565b6200129d565b604051620002c89897969594939291906200249d565b60405180910390f35b620002ef6004803603810190620002e9919062002213565b62001376565b604051620002fe9190620022a7565b60405180910390f35b6200032560048036038101906200031f91906200252b565b620014a1565b604051620003349190620022d5565b60405180910390f35b6200035b600480360381019062000355919062002245565b6200154b565b005b6200037b600480360381019062000375919062002213565b62001911565b6040516200038a9190620022d5565b60405180910390f35b620003b16004803603810190620003ab919062002572565b6200198f565b005b806001805490508110620003fe576040517f08c379a0000000000000000000000000000000000000000000000000000000008152600401620003f59062002605565b60405180910390fd5b620004098262001a92565b60006002600084815260200190815260200160002060003373ffffffffffffffffffffffffffffffffffffffff1673ffffffffffffffffffffffffffffffffffffffff1681526020019081526020016000206001015411620004a2576040517f08c379a0000000000000000000000000000000000000000000000000000000008152600401620004999062002677565b60405180910390fd5b620004ad8262001bdb565b5050565b816001805490508110620004fc576040517f08c379a0000000000000000000000000000000000000000000000000000000008152600401620004f39062002605565b60405180910390fd5b6000821162000542576040517f08c379a00000000000000000000000000000000000000000000000000000000081526004016200053990620026e9565b60405180910390fd5b6002600084815260200190815260200160002060003373ffffffffffffffffffffffffffffffffffffffff1673ffffffffffffffffffffffffffffffffffffffff16815260200190815260200160002060000154821115620005db576040517f08c379a0000000000000000000000000000000000000000000000000000000008152600401620005d2906200275b565b60405180910390fd5b620005e68362001a92565b816002600085815260200190815260200160002060003373ffffffffffffffffffffffffffffffffffffffff1673ffffffffffffffffffffffffffffffffffffffff16815260200190815260200160002060000160008282546200064b9190620027ac565b9250508190555081600184815481106200066a5762000669620027e7565b5b906000526020600020906008020160000160008282546200068c9190620027ac565b925050819055503373ffffffffffffffffffffffffffffffffffffffff16837fcf7d23a3cbe4e8b36ff82fd1b05b1b17373dc7804b4ebbd6e2356716ef20237284604051620006dc9190620022d5565b60405180910390a3620006ef8362001bdb565b600060018481548110620007085762000707620027e7565b5b906000526020600020906008020160040160009054906101000a900473ffffffffffffffffffffffffffffffffffffffff1673ffffffffffffffffffffffffffffffffffffffff1663a9059cbb33856040518363ffffffff167c01000000000000000000000000000000000000000000000000000000000281526004016200079292919062002816565b6020604051808303816000875af1158015620007b2573d6000803e3d6000fd5b505050506040513d601f19601f82011682018060405250810190620007d8919062002880565b905080620007eb57620007ea620028b2565b5b50505050565b60008160018054905081106200083e576040517f08c379a0000000000000000000000000000000000000000000000000000000008152600401620008359062002605565b60405180910390fd5b60018381548110620008555762000854620027e7565b5b906000526020600020906008020160060160009054906101000a900473ffffffffffffffffffffffffffffffffffffffff1673ffffffffffffffffffffffffffffffffffffffff16638e15f4736040518163ffffffff167c0100000000000000000000000000000000000000000000000000000000028152600401602060405180830381865afa158015620008ee573d6000803e3d6000fd5b505050506040513d601f19601f8201168201806040525081019062000914919062002912565b915050919050565b600081600180549050811062000969576040517f08c379a0000000000000000000000000000000000000000000000000000000008152600401620009609062002605565b60405180910390fd5b6002600084815260200190815260200160002060003373ffffffffffffffffffffffffffffffffffffffff1673ffffffffffffffffffffffffffffffffffffffff16815260200190815260200160002060010154915050919050565b620009cf62001e3c565b73ffffffffffffffffffffffffffffffffffffffff16620009ef620010b9565b73ffffffffffffffffffffffffffffffffffffffff161462000a48576040517f08c379a000000000000000000000000000000000000000000000000000000000815260040162000a3f9062002994565b60405180910390fd5b62000a54600062001e44565b565b60008062000a648362001f08565b9050600062000a73846200205e565b905080670de0b6b3a76400006002600087815260200190815260200160002060003373ffffffffffffffffffffffffffffffffffffffff1673ffffffffffffffffffffffffffffffffffffffff168152602001908152602001600020600301548462000ae09190620027ac565b6002600088815260200190815260200160002060003373ffffffffffffffffffffffffffffffffffffffff1673ffffffffffffffffffffffffffffffffffffffff1681526020019081526020016000206000015462000b409190620029b6565b62000b4c919062002a46565b62000b58919062002a7e565b92505050919050565b62000b6b62001e3c565b73ffffffffffffffffffffffffffffffffffffffff1662000b8b620010b9565b73ffffffffffffffffffffffffffffffffffffffff161462000be4576040517f08c379a000000000000000000000000000000000000000000000000000000000815260040162000bdb9062002994565b60405180910390fd5b600073ffffffffffffffffffffffffffffffffffffffff168573ffffffffffffffffffffffffffffffffffffffff160362000c56576040517f08c379a000000000000000000000000000000000000000000000000000000000815260040162000c4d9062002b2b565b60405180910390fd5b600073ffffffffffffffffffffffffffffffffffffffff168473ffffffffffffffffffffffffffffffffffffffff160362000cc8576040517f08c379a000000000000000000000000000000000000000000000000000000000815260040162000cbf9062002b9d565b60405180910390fd5b600073ffffffffffffffffffffffffffffffffffffffff168173ffffffffffffffffffffffffffffffffffffffff160362000d3a576040517f08c379a000000000000000000000000000000000000000000000000000000000815260040162000d319062002c0f565b60405180910390fd5b600073ffffffffffffffffffffffffffffffffffffffff168273ffffffffffffffffffffffffffffffffffffffff160362000dac576040517f08c379a000000000000000000000000000000000000000000000000000000000815260040162000da39062002c0f565b60405180910390fd5b6000831162000df2576040517f08c379a000000000000000000000000000000000000000000000000000000000815260040162000de99062002c81565b60405180910390fd5b600160405180610100016040528060008152602001438152602001600081526020018581526020018773ffffffffffffffffffffffffffffffffffffffff1681526020018673ffffffffffffffffffffffffffffffffffffffff1681526020018360405162000e6190620021c5565b62000e6d9190620023f0565b604051809103906000f08015801562000e8a573d6000803e3d6000fd5b5073ffffffffffffffffffffffffffffffffffffffff1681526020018460405162000eb590620021c5565b62000ec19190620023f0565b604051809103906000f08015801562000ede573d6000803e3d6000fd5b5073ffffffffffffffffffffffffffffffffffffffff1681525090806001815401808255809150506001900390600052602060002090600802016000909190919091506000820151816000015560208201518160010155604082015181600201556060820151816003015560808201518160040160006101000a81548173ffffffffffffffffffffffffffffffffffffffff021916908373ffffffffffffffffffffffffffffffffffffffff16021790555060a08201518160050160006101000a81548173ffffffffffffffffffffffffffffffffffffffff021916908373ffffffffffffffffffffffffffffffffffffffff16021790555060c08201518160060160006101000a81548173ffffffffffffffffffffffffffffffffffffffff021916908373ffffffffffffffffffffffffffffffffffffffff16021790555060e08201518160070160006101000a81548173ffffffffffffffffffffffffffffffffffffffff021916908373ffffffffffffffffffffffffffffffffffffffff16021790555050507ffa88d81eaffbf548e3ffc6c6458827ce9906ad714060746b80909cdf8d1d7ef7600180805490506200109b9190620027ac565b604051620010aa9190620022d5565b60405180910390a15050505050565b60008060009054906101000a900473ffffffffffffffffffffffffffffffffffffffff16905090565b60008160018054905081106200112f576040517f08c379a0000000000000000000000000000000000000000000000000000000008152600401620011269062002605565b60405180910390fd5b6200113962001e3c565b73ffffffffffffffffffffffffffffffffffffffff1662001159620010b9565b73ffffffffffffffffffffffffffffffffffffffff1614620011b2576040517f08c379a0000000000000000000000000000000000000000000000000000000008152600401620011a99062002994565b60405180910390fd5b60018381548110620011c957620011c8620027e7565b5b906000526020600020906008020160050160009054906101000a900473ffffffffffffffffffffffffffffffffffffffff1673ffffffffffffffffffffffffffffffffffffffff166370a08231306040518263ffffffff167c0100000000000000000000000000000000000000000000000000000000028152600401620012519190620023f0565b602060405180830381865afa1580156200126f573d6000803e3d6000fd5b505050506040513d601f19601f8201168201806040525081019062001295919062002cba565b915050919050565b60018181548110620012ae57600080fd5b90600052602060002090600802016000915090508060000154908060010154908060020154908060030154908060040160009054906101000a900473ffffffffffffffffffffffffffffffffffffffff16908060050160009054906101000a900473ffffffffffffffffffffffffffffffffffffffff16908060060160009054906101000a900473ffffffffffffffffffffffffffffffffffffffff16908060070160009054906101000a900473ffffffffffffffffffffffffffffffffffffffff16905088565b6000816001805490508110620013c3576040517f08c379a0000000000000000000000000000000000000000000000000000000008152600401620013ba9062002605565b60405180910390fd5b60018381548110620013da57620013d9620027e7565b5b906000526020600020906008020160070160009054906101000a900473ffffffffffffffffffffffffffffffffffffffff1673ffffffffffffffffffffffffffffffffffffffff16638e15f4736040518163ffffffff167c0100000000000000000000000000000000000000000000000000000000028152600401602060405180830381865afa15801562001473573d6000803e3d6000fd5b505050506040513d601f19601f8201168201806040525081019062001499919062002912565b915050919050565b6000826001805490508110620014ee576040517f08c379a0000000000000000000000000000000000000000000000000000000008152600401620014e59062002605565b60405180910390fd5b6002600085815260200190815260200160002060008473ffffffffffffffffffffffffffffffffffffffff1673ffffffffffffffffffffffffffffffffffffffff1681526020019081526020016000206000015491505092915050565b81600180549050811062001596576040517f08c379a00000000000000000000000000000000000000000000000000000000081526004016200158d9062002605565b60405180910390fd5b60008211620015dc576040517f08c379a0000000000000000000000000000000000000000000000000000000008152600401620015d39062002d3c565b60405180910390fd5b60018381548110620015f357620015f2620027e7565b5b906000526020600020906008020160040160009054906101000a900473ffffffffffffffffffffffffffffffffffffffff1673ffffffffffffffffffffffffffffffffffffffff166370a08231336040518263ffffffff167c01000000000000000000000000000000000000000000000000000000000281526004016200167b9190620023f0565b602060405180830381865afa15801562001699573d6000803e3d6000fd5b505050506040513d601f19601f82011682018060405250810190620016bf919062002cba565b82111562001704576040517f08c379a0000000000000000000000000000000000000000000000000000000008152600401620016fb9062002dae565b60405180910390fd5b6200170f8362001a92565b8160018481548110620017275762001726620027e7565b5b9060005260206000209060080201600001600082825462001749919062002a7e565b92505081905550816002600085815260200190815260200160002060003373ffffffffffffffffffffffffffffffffffffffff1673ffffffffffffffffffffffffffffffffffffffff1681526020019081526020016000206000016000828254620017b5919062002a7e565b925050819055503373ffffffffffffffffffffffffffffffffffffffff16837f18dcd430020e4d4899772fd94a8b40451dc5044dfb70bc46b532eeae431c864f84604051620018059190620022d5565b60405180910390a3600060018481548110620018265762001825620027e7565b5b906000526020600020906008020160040160009054906101000a900473ffffffffffffffffffffffffffffffffffffffff1673ffffffffffffffffffffffffffffffffffffffff166323b872dd3330866040518463ffffffff167c0100000000000000000000000000000000000000000000000000000000028152600401620018b29392919062002dd0565b6020604051808303816000875af1158015620018d2573d6000803e3d6000fd5b505050506040513d601f19601f82011682018060405250810190620018f8919062002880565b9050806200190b576200190a620028b2565b5b50505050565b60008160018054905081106200195e576040517f08c379a0000000000000000000000000000000000000000000000000000000008152600401620019559062002605565b60405180910390fd5b60018381548110620019755762001974620027e7565b5b906000526020600020906008020160000154915050919050565b6200199962001e3c565b73ffffffffffffffffffffffffffffffffffffffff16620019b9620010b9565b73ffffffffffffffffffffffffffffffffffffffff161462001a12576040517f08c379a000000000000000000000000000000000000000000000000000000000815260040162001a099062002994565b60405180910390fd5b600073ffffffffffffffffffffffffffffffffffffffff168173ffffffffffffffffffffffffffffffffffffffff160362001a84576040517f08c379a000000000000000000000000000000000000000000000000000000000815260040162001a7b9062002e83565b60405180910390fd5b62001a8f8162001e44565b50565b62001a9d8162001f08565b6001828154811062001ab45762001ab3620027e7565b5b906000526020600020906008020160020181905550436001828154811062001ae15762001ae0620027e7565b5b90600052602060002090600802016001018190555062001b01816200205e565b6002600083815260200190815260200160002060003373ffffffffffffffffffffffffffffffffffffffff1673ffffffffffffffffffffffffffffffffffffffff168152602001908152602001600020600101819055506001818154811062001b6f5762001b6e620027e7565b5b9060005260206000209060080201600201546002600083815260200190815260200160002060003373ffffffffffffffffffffffffffffffffffffffff1673ffffffffffffffffffffffffffffffffffffffff1681526020019081526020016000206003018190555050565b60006002600083815260200190815260200160002060003373ffffffffffffffffffffffffffffffffffffffff1673ffffffffffffffffffffffffffffffffffffffff16815260200190815260200160002060010154111562001e395760006002600083815260200190815260200160002060003373ffffffffffffffffffffffffffffffffffffffff1673ffffffffffffffffffffffffffffffffffffffff16815260200190815260200160002060010154905060006002600084815260200190815260200160002060003373ffffffffffffffffffffffffffffffffffffffff1673ffffffffffffffffffffffffffffffffffffffff168152602001908152602001600020600101819055503373ffffffffffffffffffffffffffffffffffffffff16827f4ec90e965519d92681267467f775ada5bd214aa92c0dc93d90a5e880ce9ed0268360405162001d329190620022d5565b60405180910390a360006001838154811062001d535762001d52620027e7565b5b906000526020600020906008020160050160009054906101000a900473ffffffffffffffffffffffffffffffffffffffff1673ffffffffffffffffffffffffffffffffffffffff1663a9059cbb33846040518363ffffffff167c010000000000000000000000000000000000000000000000000000000002815260040162001ddd92919062002816565b6020604051808303816000875af115801562001dfd573d6000803e3d6000fd5b505050506040513d601f19601f8201168201806040525081019062001e23919062002880565b90508062001e365762001e35620028b2565b5b50505b50565b600033905090565b60008060009054906101000a900473ffffffffffffffffffffffffffffffffffffffff169050816000806101000a81548173ffffffffffffffffffffffffffffffffffffffff021916908373ffffffffffffffffffffffffffffffffffffffff1602179055508173ffffffffffffffffffffffffffffffffffffffff168173ffffffffffffffffffffffffffffffffffffffff167f8be0079c531659141344cd1fd0a4f28419497f9722a3daafe3b4186f6b6457e060405160405180910390a35050565b6000806001838154811062001f225762001f21620027e7565b5b90600052602060002090600802016000015411156200202d576001828154811062001f525762001f51620027e7565b5b906000526020600020906008020160000154670de0b6b3a76400006001848154811062001f845762001f83620027e7565b5b9060005260206000209060080201600301546001858154811062001fad5762001fac620027e7565b5b9060005260206000209060080201600101544362001fcc9190620027ac565b62001fd89190620029b6565b62001fe49190620029b6565b62001ff0919062002a46565b60018381548110620020075762002006620027e7565b5b90600052602060002090600802016002015462002025919062002a7e565b905062002059565b60018281548110620020445762002043620027e7565b5b90600052602060002090600802016002015490505b919050565b60006002600083815260200190815260200160002060003373ffffffffffffffffffffffffffffffffffffffff1673ffffffffffffffffffffffffffffffffffffffff16815260200190815260200160002060010154670de0b6b3a76400006002600085815260200190815260200160002060003373ffffffffffffffffffffffffffffffffffffffff1673ffffffffffffffffffffffffffffffffffffffff1681526020019081526020016000206003015460018581548110620021285762002127620027e7565b5b906000526020600020906008020160020154620021469190620027ac565b6002600086815260200190815260200160002060003373ffffffffffffffffffffffffffffffffffffffff1673ffffffffffffffffffffffffffffffffffffffff16815260200190815260200160002060000154620021a69190620029b6565b620021b2919062002a46565b620021be919062002a7e565b9050919050565b6103ca8062002ea683390190565b600080fd5b6000819050919050565b620021ed81620021d8565b8114620021f957600080fd5b50565b6000813590506200220d81620021e2565b92915050565b6000602082840312156200222c576200222b620021d3565b5b60006200223c84828501620021fc565b91505092915050565b600080604083850312156200225f576200225e620021d3565b5b60006200226f85828601620021fc565b92505060206200228285828601620021fc565b9150509250929050565b6000819050919050565b620022a1816200228c565b82525050565b6000602082019050620022be600083018462002296565b92915050565b620022cf81620021d8565b82525050565b6000602082019050620022ec6000830184620022c4565b92915050565b600073ffffffffffffffffffffffffffffffffffffffff82169050919050565b60006200231f82620022f2565b9050919050565b620023318162002312565b81146200233d57600080fd5b50565b600081359050620023518162002326565b92915050565b600080600080600060a08688031215620023765762002375620021d3565b5b6000620023868882890162002340565b9550506020620023998882890162002340565b9450506040620023ac88828901620021fc565b9350506060620023bf8882890162002340565b9250506080620023d28882890162002340565b9150509295509295909350565b620023ea8162002312565b82525050565b6000602082019050620024076000830184620023df565b92915050565b6000819050919050565b600062002438620024326200242c84620022f2565b6200240d565b620022f2565b9050919050565b60006200244c8262002417565b9050919050565b600062002460826200243f565b9050919050565b620024728162002453565b82525050565b600062002485826200243f565b9050919050565b620024978162002478565b82525050565b600061010082019050620024b5600083018b620022c4565b620024c4602083018a620022c4565b620024d36040830189620022c4565b620024e26060830188620022c4565b620024f1608083018762002467565b6200250060a083018662002467565b6200250f60c08301856200248c565b6200251e60e08301846200248c565b9998505050505050505050565b60008060408385031215620025455762002544620021d3565b5b60006200255585828601620021fc565b9250506020620025688582860162002340565b9150509250929050565b6000602082840312156200258b576200258a620021d3565b5b60006200259b8482850162002340565b91505092915050565b600082825260208201905092915050565b7f506f6f6c206e6f7420666f756e64000000000000000000000000000000000000600082015250565b6000620025ed600e83620025a4565b9150620025fa82620025b5565b602082019050919050565b600060208201905081810360008301526200262081620025de565b9050919050565b7f4e6f7468696e6720746f20636c61696d00000000000000000000000000000000600082015250565b60006200265f601083620025a4565b91506200266c8262002627565b602082019050919050565b60006020820190508181036000830152620026928162002650565b9050919050565b7f496e76616c696420746f6b656e20616d6f756e74000000000000000000000000600082015250565b6000620026d1601483620025a4565b9150620026de8262002699565b602082019050919050565b600060208201905081810360008301526200270481620026c2565b9050919050565b7f4e6f7420656e6f75676820746f6b656e20746f20776964746864726177000000600082015250565b600062002743601d83620025a4565b915062002750826200270b565b602082019050919050565b60006020820190508181036000830152620027768162002734565b9050919050565b7f4e487b7100000000000000000000000000000000000000000000000000000000600052601160045260246000fd5b6000620027b982620021d8565b9150620027c683620021d8565b925082821015620027dc57620027db6200277d565b5b828203905092915050565b7f4e487b7100000000000000000000000000000000000000000000000000000000600052603260045260246000fd5b60006040820190506200282d6000830185620023df565b6200283c6020830184620022c4565b9392505050565b60008115159050919050565b6200285a8162002843565b81146200286657600080fd5b50565b6000815190506200287a816200284f565b92915050565b600060208284031215620028995762002898620021d3565b5b6000620028a98482850162002869565b91505092915050565b7f4e487b7100000000000000000000000000000000000000000000000000000000600052600160045260246000fd5b620028ec816200228c565b8114620028f857600080fd5b50565b6000815190506200290c81620028e1565b92915050565b6000602082840312156200292b576200292a620021d3565b5b60006200293b84828501620028fb565b91505092915050565b7f4f776e61626c653a2063616c6c6572206973206e6f7420746865206f776e6572600082015250565b60006200297c602083620025a4565b9150620029898262002944565b602082019050919050565b60006020820190508181036000830152620029af816200296d565b9050919050565b6000620029c382620021d8565b9150620029d083620021d8565b9250817fffffffffffffffffffffffffffffffffffffffffffffffffffffffffffffffff048311821515161562002a0c5762002a0b6200277d565b5b828202905092915050565b7f4e487b7100000000000000000000000000000000000000000000000000000000600052601260045260246000fd5b600062002a5382620021d8565b915062002a6083620021d8565b92508262002a735762002a7262002a17565b5b828204905092915050565b600062002a8b82620021d8565b915062002a9883620021d8565b9250827fffffffffffffffffffffffffffffffffffffffffffffffffffffffffffffffff0382111562002ad05762002acf6200277d565b5b828201905092915050565b7f426164207374616b696e6720746f6b656e206164647265737300000000000000600082015250565b600062002b13601983620025a4565b915062002b208262002adb565b602082019050919050565b6000602082019050818103600083015262002b468162002b04565b9050919050565b7f4261642072657761726420746f6b656e20616464726573730000000000000000600082015250565b600062002b85601883620025a4565b915062002b928262002b4d565b602082019050919050565b6000602082019050818103600083015262002bb88162002b76565b9050919050565b7f426164206f7261636c6520616464726573730000000000000000000000000000600082015250565b600062002bf7601283620025a4565b915062002c048262002bbf565b602082019050919050565b6000602082019050818103600083015262002c2a8162002be8565b9050919050565b7f5265776172642072617465206d75737420626520706f73697469766500000000600082015250565b600062002c69601c83620025a4565b915062002c768262002c31565b602082019050919050565b6000602082019050818103600083015262002c9c8162002c5a565b9050919050565b60008151905062002cb481620021e2565b92915050565b60006020828403121562002cd35762002cd2620021d3565b5b600062002ce38482850162002ca3565b91505092915050565b7f596f75206d757374206465706f73697420746f6b656e73000000000000000000600082015250565b600062002d24601783620025a4565b915062002d318262002cec565b602082019050919050565b6000602082019050818103600083015262002d578162002d15565b9050919050565b7f596f7520646f6e2774206861766520656e6f75676820746f6b656e0000000000600082015250565b600062002d96601b83620025a4565b915062002da38262002d5e565b602082019050919050565b6000602082019050818103600083015262002dc98162002d87565b9050919050565b600060608201905062002de76000830186620023df565b62002df66020830185620023df565b62002e056040830184620022c4565b949350505050565b7f4f776e61626c653a206e6577206f776e657220697320746865207a65726f206160008201527f6464726573730000000000000000000000000000000000000000000000000000602082015250565b600062002e6b602683620025a4565b915062002e788262002e0d565b604082019050919050565b6000602082019050818103600083015262002e9e8162002e5c565b905091905056fe60a060405234801561001057600080fd5b506040516103ca3803806103ca833981810160405281019061003291906100cf565b8073ffffffffffffffffffffffffffffffffffffffff1660808173ffffffffffffffffffffffffffffffffffffffff1681525050506100fc565b600080fd5b600073ffffffffffffffffffffffffffffffffffffffff82169050919050565b600061009c82610071565b9050919050565b6100ac81610091565b81146100b757600080fd5b50565b6000815190506100c9816100a3565b92915050565b6000602082840312156100e5576100e461006c565b5b60006100f3848285016100ba565b91505092915050565b6080516102b46101166000396000607001526102b46000f3fe608060405234801561001057600080fd5b5060043610610048576000357c0100000000000000000000000000000000000000000000000000000000900480638e15f4731461004d575b600080fd5b61005561006b565b604051610062919061013f565b60405180910390f35b6000807f000000000000000000000000000000000000000000000000000000000000000073ffffffffffffffffffffffffffffffffffffffff1663feaf968c6040518163ffffffff167c010000000000000000000000000000000000000000000000000000000002815260040160a060405180830381865afa1580156100f5573d6000803e3d6000fd5b505050506040513d601f19601f820116820180604052508101906101199190610203565b5050509150508091505090565b6000819050919050565b61013981610126565b82525050565b60006020820190506101546000830184610130565b92915050565b600080fd5b600069ffffffffffffffffffff82169050919050565b61017e8161015f565b811461018957600080fd5b50565b60008151905061019b81610175565b92915050565b6101aa81610126565b81146101b557600080fd5b50565b6000815190506101c7816101a1565b92915050565b6000819050919050565b6101e0816101cd565b81146101eb57600080fd5b50565b6000815190506101fd816101d7565b92915050565b600080600080600060a0868803121561021f5761021e61015a565b5b600061022d8882890161018c565b955050602061023e888289016101b8565b945050604061024f888289016101ee565b9350506060610260888289016101ee565b92505060806102718882890161018c565b915050929550929590935056fea26469706673582212204639afaeb0e960810cbc62cec726146ad7c9e691abdd5a16ecfbee3f6c19cd3064736f6c634300080d0033a264697066735822122013f96d4bc2cf89f72690fddb97ee36c9b2b50220c06b69bf1d24b3c555c83d1164736f6c634300080d0033",
  "immutableReferences": {},
  "source": "// SPDX-License-Identifier: MIT\npragma solidity 0.8.13;\n\nimport \"@openzeppelin/contracts/access/Ownable.sol\";\nimport \"@openzeppelin/contracts/token/ERC20/IERC20.sol\";\nimport \"./PriceConsumerV3.sol\";\n\ncontract Staking is Ownable {\n\n    /// List of pool\n    Pool[] public pools;\n\n    /// @dev Mapping of Users in a pool\n    mapping(uint => mapping(address => User)) private usersInPool;\n\n    /// @dev User who stack\n    struct User {\n        uint balance;\n        uint rewardBalance;\n        uint totalClaimedRewards;\n        uint rewardPerToken;\n    }\n\n    /// @dev Pool details\n    struct Pool {\n        uint totalStaked;\n        uint lastUpdateBlock;\n        uint rewardPerToken;\n        uint rewardPerBlock;\n        IERC20 stakingToken;\n        IERC20 rewardToken;\n        PriceConsumerV3 rewardTokenDataFeed;\n        PriceConsumerV3 stakingTokenDataFeed;\n    }\n\n    event PoolCreated(uint pool);\n    event Staked(uint indexed pool, address indexed user, uint amount);\n    event Withdrawn(uint indexed pool, address indexed user, uint amount);\n    event Claimed(uint indexed pool, address indexed user, uint amount);\n\n    /// @dev revert if pool index is not on the Pool[] array\n    modifier validPool(uint _poolId) {\n        require(_poolId < pools.length, \"Pool not found\");\n        _;\n    }\n\n    constructor() {\n\n    }\n\n    /**\n     * @dev Create a new pool\n     *\n     * @param _tokenToStake address of the staked token\n     * @param _tokenReward address of the rewarded token\n     * @param _rewardPerBlock how much _tokenReward will be distributed per block\n     * @param _rewardTokenDataFeedAddress chainlink datafeed address to get the price of the _tokenReward\n     *\n     * Emit a PoolCreated event\n     *\n     * Requirements:\n     * - `msg.sender` must be the owner\n     * - `_tokenToStake` must be a valid address\n     * - `_tokenReward` must be a valid address\n     * - `_rewardTokenDataFeedAddress` must be a valid address\n     * - `_rewardPerBlock` must be greater than zero\n     */\n    function createPool(address _tokenToStake, address _tokenReward, uint _rewardPerBlock, address _stakingTokenDataFeedAddress, address _rewardTokenDataFeedAddress) external onlyOwner {\n        require(_tokenToStake != address(0), \"Bad staking token address\");\n        require(_tokenReward != address(0), \"Bad reward token address\");\n        require(_rewardTokenDataFeedAddress != address(0), \"Bad oracle address\");\n        require(_stakingTokenDataFeedAddress != address(0), \"Bad oracle address\");\n        require(_rewardPerBlock > 0, \"Reward rate must be positive\");\n\n        pools.push(\n            Pool({\n                totalStaked : 0,\n                lastUpdateBlock : block.number,\n                rewardPerBlock : _rewardPerBlock,\n                rewardPerToken : 0,\n                rewardToken : IERC20(_tokenReward),\n                rewardTokenDataFeed: new PriceConsumerV3(_rewardTokenDataFeedAddress),\n                stakingToken : IERC20(_tokenToStake),\n                stakingTokenDataFeed: new PriceConsumerV3(_stakingTokenDataFeedAddress)\n            })\n        );\n\n        emit PoolCreated(pools.length - 1);\n    }\n\n    /**\n     * @dev Deposit some token in the pool _poolId and update the rewards calculation\n     * @notice Deposit some tokens in a pool\n     *\n     * @param _poolId index of the pool in the Pool[] array\n     * @param _amount Number of token user want to deposit in the pool\n     *\n     * Emit a Staked event\n     *\n     * Requirements:\n     * - `_poolId` must exists in the Pool[] array\n     * - `_amount` must be greater than zero\n     * - `msg.sender` must own enough token to deposit\n     */\n    function deposit(uint _poolId, uint _amount) external validPool(_poolId) {\n        require(_amount > 0, \"You must deposit tokens\");\n        require(_amount <= pools[_poolId].stakingToken.balanceOf(msg.sender), \"You don't have enough token\");\n\n        _updateRewards(_poolId);\n\n        pools[_poolId].totalStaked += _amount;\n        usersInPool[_poolId][msg.sender].balance += _amount;\n\n        emit Staked(_poolId, msg.sender, _amount);\n\n        bool success = pools[_poolId].stakingToken.transferFrom(msg.sender, address(this), _amount);\n        assert(success);\n    }\n\n    /**\n     * @dev Withdraw some token from the pool _poolId, update the rewards calculation and claim reward if possible\n     * @notice Withdraw some tokens from the pool\n     *\n     * @param _poolId index of the pool in the Pool[] array\n     * @param _amount Number of token user want to withdraw from the pool\n     *\n     * Emit a Withdrawn event\n     *\n     * Requirements:\n     * - `_poolId` must exists in the Pool[] array\n     * - `_amount` must be greater than zero\n     * - `msg.sender` must have enough token in this pool\n     */\n    function withdraw(uint _poolId, uint _amount) external validPool(_poolId) {\n        require(_amount > 0, \"Invalid token amount\");\n        require(_amount <= usersInPool[_poolId][msg.sender].balance, \"Not enough token to widthdraw\");\n\n        _updateRewards(_poolId);\n\n        usersInPool[_poolId][msg.sender].balance -= _amount;\n        pools[_poolId].totalStaked -= _amount;\n\n        emit Withdrawn(_poolId, msg.sender, _amount);\n        \n        _claimReward(_poolId);\n\n        bool success = pools[_poolId].stakingToken.transfer(msg.sender, _amount);\n        assert(success);\n    }\n\n    /**\n     * @dev Claim rewards from the pool _poolId\n     * @notice Claim rewards\n     *\n     * @param _poolId index of the pool in the Pool[] array\n     *\n     * Emit a Claimed event\n     *\n     * Requirements:\n     * - `_poolId` must exists in the Pool[] array\n     * - `msg.sender` must have rewards to claim for\n     */\n    function claim(uint _poolId) external validPool(_poolId) {\n        _updateRewards(_poolId);\n\n        require(usersInPool[_poolId][msg.sender].rewardBalance > 0, \"Nothing to claim\");\n\n        _claimReward(_poolId);\n    }\n\n    /**\n     * @dev Return the number of claimable tokens from the pool _poolId\n     *\n     * @param _poolId index of the pool in the Pool[] array\n     *\n     * Requirements:\n     * - `_poolId` must exists in the Pool[] array\n     */\n    function getRewardToClaim(uint _poolId) external view validPool(_poolId) returns (uint) {\n        return usersInPool[_poolId][msg.sender].rewardBalance;\n    }\n\n    /**\n     * @dev Update the rewardPerToken of the pool _poolId\n     *\n     * @param _poolId index of the pool in the Pool[] array\n     *\n     */\n    function _updateRewards(uint _poolId) private {\n        pools[_poolId].rewardPerToken = _getRewardPerToken(_poolId);\n        pools[_poolId].lastUpdateBlock = block.number;\n        usersInPool[_poolId][msg.sender].rewardBalance = _getRewardsEarnedLastPeriod(_poolId);\n        usersInPool[_poolId][msg.sender].rewardPerToken = pools[_poolId].rewardPerToken;\n    }\n\n    /**\n     * @dev Get the pending reward\n     *\n     * @param _poolId index of the pool in the Pool[] array\n     *\n     */\n    function getPendingReward(uint _poolId) external view returns (uint) {\n        uint poolRewardPerToken = _getRewardPerToken(_poolId);\n        uint userRewardBalance = _getRewardsEarnedLastPeriod(_poolId);\n        return (usersInPool[_poolId][msg.sender].balance * (poolRewardPerToken - usersInPool[_poolId][msg.sender].rewardPerToken) / 1e18) + userRewardBalance;\n    }\n\n    /**\n     * @dev Return the result of the earned reward of the user\n     *\n     * @param _poolId index of the pool in the Pool[] array\n     *\n     */\n    function _getRewardsEarnedLastPeriod(uint _poolId) private view returns (uint) {\n        return (usersInPool[_poolId][msg.sender].balance * (pools[_poolId].rewardPerToken - usersInPool[_poolId][msg.sender].rewardPerToken) / 1e18) + usersInPool[_poolId][msg.sender].rewardBalance;\n    }\n\n    /**\n     * @dev Send the reward amount and reset the balance\n     */\n    function _claimReward(uint _poolId) private {\n        if (usersInPool[_poolId][msg.sender].rewardBalance > 0) {\n            uint rewardAmount = usersInPool[_poolId][msg.sender].rewardBalance;\n            usersInPool[_poolId][msg.sender].rewardBalance = 0;\n\n            emit Claimed(_poolId, msg.sender, rewardAmount);\n\n            bool success = pools[_poolId].rewardToken.transfer(msg.sender, rewardAmount);\n            assert(success);     \n        }\n    }\n\n    /**\n     * @dev Return the result of reward per token since the last update\n     */\n    function _getRewardPerToken(uint _poolId) private view returns (uint) {\n        if (pools[_poolId].totalStaked > 0) {\n            return pools[_poolId].rewardPerToken + (((block.number - pools[_poolId].lastUpdateBlock) * pools[_poolId].rewardPerBlock * 1e18) / pools[_poolId].totalStaked);\n        \n        }\n        else {\n            return pools[_poolId].rewardPerToken;\n        }\n    }\n\n    /**\n     * @dev Return the user balance of deposited token in the pool _poolId\n     *\n     * @param _poolId index of the pool in the Pool[] array\n     * @param _address user address\n     *\n     * Requirements:\n     * - `_poolId` must exists in the Pool[] array\n     */\n    function getUserBalance(uint _poolId, address _address) external view validPool(_poolId) returns (uint) {\n        return usersInPool[_poolId][_address].balance;\n    }\n\n    /**\n     * @dev Return the total balance of the pool _poolId\n     *\n     * @param _poolId index of the pool in the Pool[] array\n     *\n     * Requirements:\n     * - `_poolId` must exists in the Pool[] array\n     */\n    function getPoolBalance(uint _poolId) external view validPool(_poolId) returns (uint) {\n        return pools[_poolId].totalStaked;\n    }\n\n    /**\n     * @dev Return price of the reward token from the pool _poolId\n     *\n     * @param _poolId index of the pool in the Pool[] array\n     *\n     * Requirements:\n     * - `_poolId` must exists in the Pool[] array\n     */\n    function getRewardPrice(uint _poolId) external view validPool(_poolId) returns (int) {\n        return pools[_poolId].rewardTokenDataFeed.getLatestPrice();\n    }\n\n    /**\n     * @dev Return price of the staking token from the pool _poolId\n     *\n     * @param _poolId index of the pool in the Pool[] array\n     *\n     * Requirements:\n     * - `_poolId` must exists in the Pool[] array\n     */\n    function getTokenPrice(uint _poolId) external view validPool(_poolId) returns (int) {\n        return pools[_poolId].stakingTokenDataFeed.getLatestPrice();\n    }\n\n    // todo garder ? permettrait  l'admin de savoir si la pool a assez de reward token\n    function getRemainingRewards(uint _poolId) external view validPool(_poolId) onlyOwner returns (uint) {\n        return pools[_poolId].rewardToken.balanceOf(address(this));\n    }\n\n}",
  "sourcePath": "/home/tomawok-work/prog/alyra/projet4/contracts/Staking.sol",
  "compiler": {
    "name": "solc",
    "version": "0.8.13+commit.abaa5c0e.Emscripten.clang"
  },
  "schemaVersion": "3.4.6",
  "updatedAt": "2022-05-15T19:10:37.366Z",
  "networkType": "ethereum",
  "devdoc": {
    "kind": "dev",
    "methods": {
      "claim(uint256)": {
        "details": "Claim rewards from the pool _poolId",
        "params": {
          "_poolId": "index of the pool in the Pool[] array Emit a Claimed event Requirements: - `_poolId` must exists in the Pool[] array - `msg.sender` must have rewards to claim for"
        }
      },
      "createPool(address,address,uint256,address,address)": {
        "details": "Create a new pool",
        "params": {
          "_rewardPerBlock": "how much _tokenReward will be distributed per block",
          "_rewardTokenDataFeedAddress": "chainlink datafeed address to get the price of the _tokenReward Emit a PoolCreated event Requirements: - `msg.sender` must be the owner - `_tokenToStake` must be a valid address - `_tokenReward` must be a valid address - `_rewardTokenDataFeedAddress` must be a valid address - `_rewardPerBlock` must be greater than zero",
          "_tokenReward": "address of the rewarded token",
          "_tokenToStake": "address of the staked token"
        }
      },
      "deposit(uint256,uint256)": {
        "details": "Deposit some token in the pool _poolId and update the rewards calculation",
        "params": {
          "_amount": "Number of token user want to deposit in the pool Emit a Staked event Requirements: - `_poolId` must exists in the Pool[] array - `_amount` must be greater than zero - `msg.sender` must own enough token to deposit",
          "_poolId": "index of the pool in the Pool[] array"
        }
      },
      "getPendingReward(uint256)": {
        "details": "Get the pending reward",
        "params": {
          "_poolId": "index of the pool in the Pool[] array"
        }
      },
      "getPoolBalance(uint256)": {
        "details": "Return the total balance of the pool _poolId",
        "params": {
          "_poolId": "index of the pool in the Pool[] array Requirements: - `_poolId` must exists in the Pool[] array"
        }
      },
      "getRewardPrice(uint256)": {
        "details": "Return price of the reward token from the pool _poolId",
        "params": {
          "_poolId": "index of the pool in the Pool[] array Requirements: - `_poolId` must exists in the Pool[] array"
        }
      },
      "getRewardToClaim(uint256)": {
        "details": "Return the number of claimable tokens from the pool _poolId",
        "params": {
          "_poolId": "index of the pool in the Pool[] array Requirements: - `_poolId` must exists in the Pool[] array"
        }
      },
      "getTokenPrice(uint256)": {
        "details": "Return price of the staking token from the pool _poolId",
        "params": {
          "_poolId": "index of the pool in the Pool[] array Requirements: - `_poolId` must exists in the Pool[] array"
        }
      },
      "getUserBalance(uint256,address)": {
        "details": "Return the user balance of deposited token in the pool _poolId",
        "params": {
          "_address": "user address Requirements: - `_poolId` must exists in the Pool[] array",
          "_poolId": "index of the pool in the Pool[] array"
        }
      },
      "owner()": {
        "details": "Returns the address of the current owner."
      },
      "renounceOwnership()": {
        "details": "Leaves the contract without owner. It will not be possible to call `onlyOwner` functions anymore. Can only be called by the current owner. NOTE: Renouncing ownership will leave the contract without an owner, thereby removing any functionality that is only available to the owner."
      },
      "transferOwnership(address)": {
        "details": "Transfers ownership of the contract to a new account (`newOwner`). Can only be called by the current owner."
      },
      "withdraw(uint256,uint256)": {
        "details": "Withdraw some token from the pool _poolId, update the rewards calculation and claim reward if possible",
        "params": {
          "_amount": "Number of token user want to withdraw from the pool Emit a Withdrawn event Requirements: - `_poolId` must exists in the Pool[] array - `_amount` must be greater than zero - `msg.sender` must have enough token in this pool",
          "_poolId": "index of the pool in the Pool[] array"
        }
      }
    },
    "stateVariables": {
      "usersInPool": {
        "details": "Mapping of Users in a pool"
      }
    },
    "version": 1
  },
  "userdoc": {
    "kind": "user",
    "methods": {
      "claim(uint256)": {
        "notice": "Claim rewards"
      },
      "deposit(uint256,uint256)": {
        "notice": "Deposit some tokens in a pool"
      },
      "pools(uint256)": {
        "notice": "List of pool"
      },
      "withdraw(uint256,uint256)": {
        "notice": "Withdraw some tokens from the pool"
      }
    },
    "version": 1
  }
}