{
  "contractName": "Staking",
  "abi": [
    {
      "inputs": [],
      "stateMutability": "nonpayable",
      "type": "constructor"
    },
    {
      "anonymous": false,
      "inputs": [
        {
          "indexed": true,
          "internalType": "uint256",
          "name": "pool",
          "type": "uint256"
        },
        {
          "indexed": true,
          "internalType": "address",
          "name": "user",
          "type": "address"
        },
        {
          "indexed": false,
          "internalType": "uint256",
          "name": "amount",
          "type": "uint256"
        }
      ],
      "name": "Claimed",
      "type": "event"
    },
    {
      "anonymous": false,
      "inputs": [
        {
          "indexed": true,
          "internalType": "address",
          "name": "previousOwner",
          "type": "address"
        },
        {
          "indexed": true,
          "internalType": "address",
          "name": "newOwner",
          "type": "address"
        }
      ],
      "name": "OwnershipTransferred",
      "type": "event"
    },
    {
      "anonymous": false,
      "inputs": [
        {
          "indexed": false,
          "internalType": "uint256",
          "name": "pool",
          "type": "uint256"
        }
      ],
      "name": "PoolCreated",
      "type": "event"
    },
    {
      "anonymous": false,
      "inputs": [
        {
          "indexed": true,
          "internalType": "uint256",
          "name": "pool",
          "type": "uint256"
        },
        {
          "indexed": true,
          "internalType": "address",
          "name": "user",
          "type": "address"
        },
        {
          "indexed": false,
          "internalType": "uint256",
          "name": "amount",
          "type": "uint256"
        }
      ],
      "name": "Staked",
      "type": "event"
    },
    {
      "anonymous": false,
      "inputs": [
        {
          "indexed": true,
          "internalType": "uint256",
          "name": "pool",
          "type": "uint256"
        },
        {
          "indexed": true,
          "internalType": "address",
          "name": "user",
          "type": "address"
        },
        {
          "indexed": false,
          "internalType": "uint256",
          "name": "amount",
          "type": "uint256"
        }
      ],
      "name": "Withdrawn",
      "type": "event"
    },
    {
      "inputs": [],
      "name": "owner",
      "outputs": [
        {
          "internalType": "address",
          "name": "",
          "type": "address"
        }
      ],
      "stateMutability": "view",
      "type": "function"
    },
    {
      "inputs": [
        {
          "internalType": "uint256",
          "name": "",
          "type": "uint256"
        }
      ],
      "name": "pools",
      "outputs": [
        {
          "internalType": "uint256",
          "name": "totalStaked",
          "type": "uint256"
        },
        {
          "internalType": "uint256",
          "name": "lastUpdateBlock",
          "type": "uint256"
        },
        {
          "internalType": "uint256",
          "name": "rewardPerToken",
          "type": "uint256"
        },
        {
          "internalType": "uint256",
          "name": "rewardPerBlock",
          "type": "uint256"
        },
        {
          "internalType": "contract IERC20",
          "name": "stakingToken",
          "type": "address"
        },
        {
          "internalType": "contract IERC20",
          "name": "rewardToken",
          "type": "address"
        }
      ],
      "stateMutability": "view",
      "type": "function"
    },
    {
      "inputs": [],
      "name": "renounceOwnership",
      "outputs": [],
      "stateMutability": "nonpayable",
      "type": "function"
    },
    {
      "inputs": [
        {
          "internalType": "address",
          "name": "newOwner",
          "type": "address"
        }
      ],
      "name": "transferOwnership",
      "outputs": [],
      "stateMutability": "nonpayable",
      "type": "function"
    },
    {
      "inputs": [
        {
          "internalType": "address",
          "name": "_tokenToStake",
          "type": "address"
        },
        {
          "internalType": "address",
          "name": "_tokenReward",
          "type": "address"
        },
        {
          "internalType": "uint256",
          "name": "_rewardPerBlock",
          "type": "uint256"
        },
        {
          "internalType": "address",
          "name": "_rewardTokenDataFeedAddress",
          "type": "address"
        }
      ],
      "name": "createPool",
      "outputs": [],
      "stateMutability": "nonpayable",
      "type": "function"
    },
    {
      "inputs": [
        {
          "internalType": "uint256",
          "name": "_poolId",
          "type": "uint256"
        },
        {
          "internalType": "uint256",
          "name": "_amount",
          "type": "uint256"
        }
      ],
      "name": "deposit",
      "outputs": [],
      "stateMutability": "nonpayable",
      "type": "function"
    },
    {
      "inputs": [
        {
          "internalType": "uint256",
          "name": "_poolId",
          "type": "uint256"
        },
        {
          "internalType": "uint256",
          "name": "_amount",
          "type": "uint256"
        }
      ],
      "name": "withdraw",
      "outputs": [],
      "stateMutability": "nonpayable",
      "type": "function"
    },
    {
      "inputs": [
        {
          "internalType": "uint256",
          "name": "_poolId",
          "type": "uint256"
        }
      ],
      "name": "claim",
      "outputs": [],
      "stateMutability": "nonpayable",
      "type": "function"
    },
    {
      "inputs": [
        {
          "internalType": "uint256",
          "name": "_poolId",
          "type": "uint256"
        }
      ],
      "name": "getRewardToClaim",
      "outputs": [
        {
          "internalType": "uint256",
          "name": "",
          "type": "uint256"
        }
      ],
      "stateMutability": "view",
      "type": "function"
    },
    {
      "inputs": [
        {
          "internalType": "uint256",
          "name": "_poolId",
          "type": "uint256"
        },
        {
          "internalType": "address",
          "name": "_address",
          "type": "address"
        }
      ],
      "name": "getUserBalance",
      "outputs": [
        {
          "internalType": "uint256",
          "name": "",
          "type": "uint256"
        }
      ],
      "stateMutability": "view",
      "type": "function"
    },
    {
      "inputs": [
        {
          "internalType": "uint256",
          "name": "_poolId",
          "type": "uint256"
        }
      ],
      "name": "getPoolBalance",
      "outputs": [
        {
          "internalType": "uint256",
          "name": "",
          "type": "uint256"
        }
      ],
      "stateMutability": "view",
      "type": "function"
    },
    {
      "inputs": [
        {
          "internalType": "uint256",
          "name": "_poolId",
          "type": "uint256"
        }
      ],
      "name": "getRemainingRewards",
      "outputs": [
        {
          "internalType": "uint256",
          "name": "",
          "type": "uint256"
        }
      ],
      "stateMutability": "view",
      "type": "function"
    }
  ],
  "bytecode": "0x60806040523480156200001157600080fd5b50620000446200002f6200004a640100000000026401000000009004565b62000052640100000000026401000000009004565b62000116565b600033905090565b60008060009054906101000a900473ffffffffffffffffffffffffffffffffffffffff169050816000806101000a81548173ffffffffffffffffffffffffffffffffffffffff021916908373ffffffffffffffffffffffffffffffffffffffff1602179055508173ffffffffffffffffffffffffffffffffffffffff168173ffffffffffffffffffffffffffffffffffffffff167f8be0079c531659141344cd1fd0a4f28419497f9722a3daafe3b4186f6b6457e060405160405180910390a35050565b61259280620001266000396000f3fe608060405234801561001057600080fd5b50600436106100d1576000357c010000000000000000000000000000000000000000000000000000000090048063a49588451161008e578063a495884514610182578063ac4afa38146101b2578063cdfb6cf3146101e7578063e2bbb15814610217578063ed1375d514610233578063f2fde38b14610263576100d1565b8063379607f5146100d6578063441a3e70146100f257806347cb3aa91461010e5780636a07f3661461012a578063715018a61461015a5780638da5cb5b14610164575b600080fd5b6100f060048036038101906100eb9190611a8a565b61027f565b005b61010c60048036038101906101079190611ab7565b61036a565b005b61012860048036038101906101239190611b55565b610689565b005b610144600480360381019061013f9190611a8a565b610a20565b6040516101519190611bcb565b60405180910390f35b610162610ac6565b005b61016c610b4e565b6040516101799190611bf5565b60405180910390f35b61019c60048036038101906101979190611a8a565b610b77565b6040516101a99190611bcb565b60405180910390f35b6101cc60048036038101906101c79190611a8a565b610d20565b6040516101de96959493929190611c6f565b60405180910390f35b61020160048036038101906101fc9190611cd0565b610dac565b60405161020e9190611bcb565b60405180910390f35b610231600480360381019061022c9190611ab7565b610e53565b005b61024d60048036038101906102489190611a8a565b6111f2565b60405161025a9190611bcb565b60405180910390f35b61027d60048036038101906102789190611d10565b61126a565b005b8060018054905081106102c7576040517f08c379a00000000000000000000000000000000000000000000000000000000081526004016102be90611d9a565b60405180910390fd5b60006002600084815260200190815260200160002060003373ffffffffffffffffffffffffffffffffffffffff1673ffffffffffffffffffffffffffffffffffffffff168152602001908152602001600020600101541161035d576040517f08c379a000000000000000000000000000000000000000000000000000000000815260040161035490611e06565b60405180910390fd5b61036682611361565b5050565b8160018054905081106103b2576040517f08c379a00000000000000000000000000000000000000000000000000000000081526004016103a990611d9a565b60405180910390fd5b600082116103f5576040517f08c379a00000000000000000000000000000000000000000000000000000000081526004016103ec90611e72565b60405180910390fd5b6002600084815260200190815260200160002060003373ffffffffffffffffffffffffffffffffffffffff1673ffffffffffffffffffffffffffffffffffffffff1681526020019081526020016000206000015482111561048b576040517f08c379a000000000000000000000000000000000000000000000000000000000815260040161048290611ede565b60405180910390fd5b610494836115b4565b816002600085815260200190815260200160002060003373ffffffffffffffffffffffffffffffffffffffff1673ffffffffffffffffffffffffffffffffffffffff16815260200190815260200160002060000160008282546104f79190611f2d565b92505081905550816001848154811061051357610512611f61565b5b906000526020600020906006020160000160008282546105339190611f2d565b9250508190555061054383611361565b60006001848154811061055957610558611f61565b5b906000526020600020906006020160040160009054906101000a900473ffffffffffffffffffffffffffffffffffffffff1673ffffffffffffffffffffffffffffffffffffffff1663a9059cbb33856040518363ffffffff167c01000000000000000000000000000000000000000000000000000000000281526004016105e1929190611f90565b6020604051808303816000875af1158015610600573d6000803e3d6000fd5b505050506040513d601f19601f820116820180604052508101906106249190611ff1565b9050806106345761063361201e565b5b3373ffffffffffffffffffffffffffffffffffffffff16847fcf7d23a3cbe4e8b36ff82fd1b05b1b17373dc7804b4ebbd6e2356716ef2023728560405161067b9190611bcb565b60405180910390a350505050565b6106916116f0565b73ffffffffffffffffffffffffffffffffffffffff166106af610b4e565b73ffffffffffffffffffffffffffffffffffffffff1614610705576040517f08c379a00000000000000000000000000000000000000000000000000000000081526004016106fc90612099565b60405180910390fd5b600073ffffffffffffffffffffffffffffffffffffffff168473ffffffffffffffffffffffffffffffffffffffff1603610774576040517f08c379a000000000000000000000000000000000000000000000000000000000815260040161076b90612105565b60405180910390fd5b600073ffffffffffffffffffffffffffffffffffffffff168373ffffffffffffffffffffffffffffffffffffffff16036107e3576040517f08c379a00000000000000000000000000000000000000000000000000000000081526004016107da90612171565b60405180910390fd5b600073ffffffffffffffffffffffffffffffffffffffff168173ffffffffffffffffffffffffffffffffffffffff1603610852576040517f08c379a0000000000000000000000000000000000000000000000000000000008152600401610849906121dd565b60405180910390fd5b60008211610895576040517f08c379a000000000000000000000000000000000000000000000000000000000815260040161088c90612249565b60405180910390fd5b60016040518060c0016040528060008152602001438152602001600081526020018481526020018673ffffffffffffffffffffffffffffffffffffffff1681526020018573ffffffffffffffffffffffffffffffffffffffff1681525090806001815401808255809150506001900390600052602060002090600602016000909190919091506000820151816000015560208201518160010155604082015181600201556060820151816003015560808201518160040160006101000a81548173ffffffffffffffffffffffffffffffffffffffff021916908373ffffffffffffffffffffffffffffffffffffffff16021790555060a08201518160050160006101000a81548173ffffffffffffffffffffffffffffffffffffffff021916908373ffffffffffffffffffffffffffffffffffffffff16021790555050507ffa88d81eaffbf548e3ffc6c6458827ce9906ad714060746b80909cdf8d1d7ef760018080549050610a059190611f2d565b604051610a129190611bcb565b60405180910390a150505050565b6000816001805490508110610a6a576040517f08c379a0000000000000000000000000000000000000000000000000000000008152600401610a6190611d9a565b60405180910390fd5b6002600084815260200190815260200160002060003373ffffffffffffffffffffffffffffffffffffffff1673ffffffffffffffffffffffffffffffffffffffff16815260200190815260200160002060010154915050919050565b610ace6116f0565b73ffffffffffffffffffffffffffffffffffffffff16610aec610b4e565b73ffffffffffffffffffffffffffffffffffffffff1614610b42576040517f08c379a0000000000000000000000000000000000000000000000000000000008152600401610b3990612099565b60405180910390fd5b610b4c60006116f8565b565b60008060009054906101000a900473ffffffffffffffffffffffffffffffffffffffff16905090565b6000816001805490508110610bc1576040517f08c379a0000000000000000000000000000000000000000000000000000000008152600401610bb890611d9a565b60405180910390fd5b610bc96116f0565b73ffffffffffffffffffffffffffffffffffffffff16610be7610b4e565b73ffffffffffffffffffffffffffffffffffffffff1614610c3d576040517f08c379a0000000000000000000000000000000000000000000000000000000008152600401610c3490612099565b60405180910390fd5b60018381548110610c5157610c50611f61565b5b906000526020600020906006020160050160009054906101000a900473ffffffffffffffffffffffffffffffffffffffff1673ffffffffffffffffffffffffffffffffffffffff166370a08231306040518263ffffffff167c0100000000000000000000000000000000000000000000000000000000028152600401610cd79190611bf5565b602060405180830381865afa158015610cf4573d6000803e3d6000fd5b505050506040513d601f19601f82011682018060405250810190610d18919061227e565b915050919050565b60018181548110610d3057600080fd5b90600052602060002090600602016000915090508060000154908060010154908060020154908060030154908060040160009054906101000a900473ffffffffffffffffffffffffffffffffffffffff16908060050160009054906101000a900473ffffffffffffffffffffffffffffffffffffffff16905086565b6000826001805490508110610df6576040517f08c379a0000000000000000000000000000000000000000000000000000000008152600401610ded90611d9a565b60405180910390fd5b6002600085815260200190815260200160002060008473ffffffffffffffffffffffffffffffffffffffff1673ffffffffffffffffffffffffffffffffffffffff1681526020019081526020016000206000015491505092915050565b816001805490508110610e9b576040517f08c379a0000000000000000000000000000000000000000000000000000000008152600401610e9290611d9a565b60405180910390fd5b60008211610ede576040517f08c379a0000000000000000000000000000000000000000000000000000000008152600401610ed5906122f7565b60405180910390fd5b60018381548110610ef257610ef1611f61565b5b906000526020600020906006020160040160009054906101000a900473ffffffffffffffffffffffffffffffffffffffff1673ffffffffffffffffffffffffffffffffffffffff166370a08231336040518263ffffffff167c0100000000000000000000000000000000000000000000000000000000028152600401610f789190611bf5565b602060405180830381865afa158015610f95573d6000803e3d6000fd5b505050506040513d601f19601f82011682018060405250810190610fb9919061227e565b821115610ffb576040517f08c379a0000000000000000000000000000000000000000000000000000000008152600401610ff290612363565b60405180910390fd5b611004836115b4565b816001848154811061101957611018611f61565b5b906000526020600020906006020160000160008282546110399190612383565b92505081905550816002600085815260200190815260200160002060003373ffffffffffffffffffffffffffffffffffffffff1673ffffffffffffffffffffffffffffffffffffffff16815260200190815260200160002060000160008282546110a39190612383565b925050819055506000600184815481106110c0576110bf611f61565b5b906000526020600020906006020160040160009054906101000a900473ffffffffffffffffffffffffffffffffffffffff1673ffffffffffffffffffffffffffffffffffffffff166323b872dd3330866040518463ffffffff167c010000000000000000000000000000000000000000000000000000000002815260040161114a939291906123d9565b6020604051808303816000875af1158015611169573d6000803e3d6000fd5b505050506040513d601f19601f8201168201806040525081019061118d9190611ff1565b90508061119d5761119c61201e565b5b3373ffffffffffffffffffffffffffffffffffffffff16847f18dcd430020e4d4899772fd94a8b40451dc5044dfb70bc46b532eeae431c864f856040516111e49190611bcb565b60405180910390a350505050565b600081600180549050811061123c576040517f08c379a000000000000000000000000000000000000000000000000000000000815260040161123390611d9a565b60405180910390fd5b600183815481106112505761124f611f61565b5b906000526020600020906006020160000154915050919050565b6112726116f0565b73ffffffffffffffffffffffffffffffffffffffff16611290610b4e565b73ffffffffffffffffffffffffffffffffffffffff16146112e6576040517f08c379a00000000000000000000000000000000000000000000000000000000081526004016112dd90612099565b60405180910390fd5b600073ffffffffffffffffffffffffffffffffffffffff168173ffffffffffffffffffffffffffffffffffffffff1603611355576040517f08c379a000000000000000000000000000000000000000000000000000000000815260040161134c90612482565b60405180910390fd5b61135e816116f8565b50565b60006002600083815260200190815260200160002060003373ffffffffffffffffffffffffffffffffffffffff1673ffffffffffffffffffffffffffffffffffffffff1681526020019081526020016000206001015411156115b15760006002600083815260200190815260200160002060003373ffffffffffffffffffffffffffffffffffffffff1673ffffffffffffffffffffffffffffffffffffffff16815260200190815260200160002060010154905060006002600084815260200190815260200160002060003373ffffffffffffffffffffffffffffffffffffffff1673ffffffffffffffffffffffffffffffffffffffff1681526020019081526020016000206001018190555060006001838154811061148457611483611f61565b5b906000526020600020906006020160050160009054906101000a900473ffffffffffffffffffffffffffffffffffffffff1673ffffffffffffffffffffffffffffffffffffffff1663a9059cbb33846040518363ffffffff167c010000000000000000000000000000000000000000000000000000000002815260040161150c929190611f90565b6020604051808303816000875af115801561152b573d6000803e3d6000fd5b505050506040513d601f19601f8201168201806040525081019061154f9190611ff1565b90508061155f5761155e61201e565b5b3373ffffffffffffffffffffffffffffffffffffffff16837f4ec90e965519d92681267467f775ada5bd214aa92c0dc93d90a5e880ce9ed026846040516115a69190611bcb565b60405180910390a350505b50565b6115bd816117bc565b600182815481106115d1576115d0611f61565b5b90600052602060002090600602016002018190555043600182815481106115fb576115fa611f61565b5b906000526020600020906006020160010181905550611619816118f3565b6002600083815260200190815260200160002060003373ffffffffffffffffffffffffffffffffffffffff1673ffffffffffffffffffffffffffffffffffffffff168152602001908152602001600020600101819055506001818154811061168457611683611f61565b5b9060005260206000209060060201600201546002600083815260200190815260200160002060003373ffffffffffffffffffffffffffffffffffffffff1673ffffffffffffffffffffffffffffffffffffffff1681526020019081526020016000206003018190555050565b600033905090565b60008060009054906101000a900473ffffffffffffffffffffffffffffffffffffffff169050816000806101000a81548173ffffffffffffffffffffffffffffffffffffffff021916908373ffffffffffffffffffffffffffffffffffffffff1602179055508173ffffffffffffffffffffffffffffffffffffffff168173ffffffffffffffffffffffffffffffffffffffff167f8be0079c531659141344cd1fd0a4f28419497f9722a3daafe3b4186f6b6457e060405160405180910390a35050565b600080600183815481106117d3576117d2611f61565b5b9060005260206000209060060201600001540361181757600182815481106117fe576117fd611f61565b5b90600052602060002090600602016002015490506118ee565b6001828154811061182b5761182a611f61565b5b906000526020600020906006020160000154670de0b6b3a76400006001848154811061185a57611859611f61565b5b906000526020600020906006020160030154600185815481106118805761187f611f61565b5b9060005260206000209060060201600101544361189d9190611f2d565b6118a791906124a2565b6118b191906124a2565b6118bb919061252b565b600183815481106118cf576118ce611f61565b5b9060005260206000209060060201600201546118eb9190612383565b90505b919050565b60006002600083815260200190815260200160002060003373ffffffffffffffffffffffffffffffffffffffff1673ffffffffffffffffffffffffffffffffffffffff16815260200190815260200160002060010154670de0b6b3a76400006002600085815260200190815260200160002060003373ffffffffffffffffffffffffffffffffffffffff1673ffffffffffffffffffffffffffffffffffffffff16815260200190815260200160002060030154600185815481106119ba576119b9611f61565b5b9060005260206000209060060201600201546119d69190611f2d565b6002600086815260200190815260200160002060003373ffffffffffffffffffffffffffffffffffffffff1673ffffffffffffffffffffffffffffffffffffffff16815260200190815260200160002060000154611a3491906124a2565b611a3e919061252b565b611a489190612383565b9050919050565b600080fd5b6000819050919050565b611a6781611a54565b8114611a7257600080fd5b50565b600081359050611a8481611a5e565b92915050565b600060208284031215611aa057611a9f611a4f565b5b6000611aae84828501611a75565b91505092915050565b60008060408385031215611ace57611acd611a4f565b5b6000611adc85828601611a75565b9250506020611aed85828601611a75565b9150509250929050565b600073ffffffffffffffffffffffffffffffffffffffff82169050919050565b6000611b2282611af7565b9050919050565b611b3281611b17565b8114611b3d57600080fd5b50565b600081359050611b4f81611b29565b92915050565b60008060008060808587031215611b6f57611b6e611a4f565b5b6000611b7d87828801611b40565b9450506020611b8e87828801611b40565b9350506040611b9f87828801611a75565b9250506060611bb087828801611b40565b91505092959194509250565b611bc581611a54565b82525050565b6000602082019050611be06000830184611bbc565b92915050565b611bef81611b17565b82525050565b6000602082019050611c0a6000830184611be6565b92915050565b6000819050919050565b6000611c35611c30611c2b84611af7565b611c10565b611af7565b9050919050565b6000611c4782611c1a565b9050919050565b6000611c5982611c3c565b9050919050565b611c6981611c4e565b82525050565b600060c082019050611c846000830189611bbc565b611c916020830188611bbc565b611c9e6040830187611bbc565b611cab6060830186611bbc565b611cb86080830185611c60565b611cc560a0830184611c60565b979650505050505050565b60008060408385031215611ce757611ce6611a4f565b5b6000611cf585828601611a75565b9250506020611d0685828601611b40565b9150509250929050565b600060208284031215611d2657611d25611a4f565b5b6000611d3484828501611b40565b91505092915050565b600082825260208201905092915050565b7f506f6f6c206e6f7420666f756e64000000000000000000000000000000000000600082015250565b6000611d84600e83611d3d565b9150611d8f82611d4e565b602082019050919050565b60006020820190508181036000830152611db381611d77565b9050919050565b7f4e6f7468696e6720746f20636c61696d00000000000000000000000000000000600082015250565b6000611df0601083611d3d565b9150611dfb82611dba565b602082019050919050565b60006020820190508181036000830152611e1f81611de3565b9050919050565b7f496e76616c696420746f6b656e20616d6f756e74000000000000000000000000600082015250565b6000611e5c601483611d3d565b9150611e6782611e26565b602082019050919050565b60006020820190508181036000830152611e8b81611e4f565b9050919050565b7f4e6f7420656e6f75676820746f6b656e20746f20776964746864726177000000600082015250565b6000611ec8601d83611d3d565b9150611ed382611e92565b602082019050919050565b60006020820190508181036000830152611ef781611ebb565b9050919050565b7f4e487b7100000000000000000000000000000000000000000000000000000000600052601160045260246000fd5b6000611f3882611a54565b9150611f4383611a54565b925082821015611f5657611f55611efe565b5b828203905092915050565b7f4e487b7100000000000000000000000000000000000000000000000000000000600052603260045260246000fd5b6000604082019050611fa56000830185611be6565b611fb26020830184611bbc565b9392505050565b60008115159050919050565b611fce81611fb9565b8114611fd957600080fd5b50565b600081519050611feb81611fc5565b92915050565b60006020828403121561200757612006611a4f565b5b600061201584828501611fdc565b91505092915050565b7f4e487b7100000000000000000000000000000000000000000000000000000000600052600160045260246000fd5b7f4f776e61626c653a2063616c6c6572206973206e6f7420746865206f776e6572600082015250565b6000612083602083611d3d565b915061208e8261204d565b602082019050919050565b600060208201905081810360008301526120b281612076565b9050919050565b7f426164207374616b696e6720746f6b656e206164647265737300000000000000600082015250565b60006120ef601983611d3d565b91506120fa826120b9565b602082019050919050565b6000602082019050818103600083015261211e816120e2565b9050919050565b7f4261642072657761726420746f6b656e20616464726573730000000000000000600082015250565b600061215b601883611d3d565b915061216682612125565b602082019050919050565b6000602082019050818103600083015261218a8161214e565b9050919050565b7f426164206f7261636c6520616464726573730000000000000000000000000000600082015250565b60006121c7601283611d3d565b91506121d282612191565b602082019050919050565b600060208201905081810360008301526121f6816121ba565b9050919050565b7f5265776172642072617465206d75737420626520706f73697469766500000000600082015250565b6000612233601c83611d3d565b915061223e826121fd565b602082019050919050565b6000602082019050818103600083015261226281612226565b9050919050565b60008151905061227881611a5e565b92915050565b60006020828403121561229457612293611a4f565b5b60006122a284828501612269565b91505092915050565b7f596f75206d757374206465706f73697420746f6b656e73000000000000000000600082015250565b60006122e1601783611d3d565b91506122ec826122ab565b602082019050919050565b60006020820190508181036000830152612310816122d4565b9050919050565b7f596f7520646f6e2774206861766520656e6f75676820746f6b656e0000000000600082015250565b600061234d601b83611d3d565b915061235882612317565b602082019050919050565b6000602082019050818103600083015261237c81612340565b9050919050565b600061238e82611a54565b915061239983611a54565b9250827fffffffffffffffffffffffffffffffffffffffffffffffffffffffffffffffff038211156123ce576123cd611efe565b5b828201905092915050565b60006060820190506123ee6000830186611be6565b6123fb6020830185611be6565b6124086040830184611bbc565b949350505050565b7f4f776e61626c653a206e6577206f776e657220697320746865207a65726f206160008201527f6464726573730000000000000000000000000000000000000000000000000000602082015250565b600061246c602683611d3d565b915061247782612410565b604082019050919050565b6000602082019050818103600083015261249b8161245f565b9050919050565b60006124ad82611a54565b91506124b883611a54565b9250817fffffffffffffffffffffffffffffffffffffffffffffffffffffffffffffffff04831182151516156124f1576124f0611efe565b5b828202905092915050565b7f4e487b7100000000000000000000000000000000000000000000000000000000600052601260045260246000fd5b600061253682611a54565b915061254183611a54565b925082612551576125506124fc565b5b82820490509291505056fea2646970667358221220f964b21e8c94daf361647cc5348cddc8be093d2f44247d9f2a6d707df9350fb464736f6c634300080d0033",
  "immutableReferences": {},
  "source": "// SPDX-License-Identifier: MIT\npragma solidity 0.8.13;\n\nimport \"@openzeppelin/contracts/access/Ownable.sol\";\nimport \"@openzeppelin/contracts/token/ERC20/IERC20.sol\";\n\ncontract Staking is Ownable {\n\n    /// List of pool\n    Pool[] public pools;\n\n    /// @dev Mapping of Users in a pool\n    mapping(uint => mapping(address => User)) private usersInPool;\n\n    /// @dev User who stack\n    struct User {\n        uint balance;\n        uint rewardBalance;\n        uint totalClaimedRewards;\n        uint rewardPerToken;\n    }\n\n    /// @dev Pool details\n    struct Pool {\n        uint totalStaked;\n        uint lastUpdateBlock;\n        uint rewardPerToken;\n        uint rewardPerBlock;\n        IERC20 stakingToken;\n        IERC20 rewardToken;\n    }\n\n    event PoolCreated(uint pool);\n    event Staked(uint indexed pool, address indexed user, uint amount);\n    event Withdrawn(uint indexed pool, address indexed user, uint amount);\n    event Claimed(uint indexed pool, address indexed user, uint amount);\n\n    modifier validPool(uint _poolId) {\n        require(_poolId < pools.length, \"Pool not found\");\n        _;\n    }\n\n    constructor() {\n\n    }\n\n    /**\n     * @dev Create a new pool\n     *\n     * @param _tokenToStake address of the staked token\n     * @param _tokenReward address of the rewarded token\n     * @param _rewardPerBlock how much _tokenReward will be distributed per block\n     * @param _rewardTokenDataFeedAddress chainlink datafeed address to get the price of the _tokenReward\n     *\n     * Emit a PoolCreated event\n     *\n     * Requirements:\n     * - `msg.sender` must be the owner\n     * - `_tokenToStake` must be a valid address\n     * - `_tokenReward` must be a valid address\n     * - `_rewardTokenDataFeedAddress` must be a valid address\n     * - `_rewardPerBlock` must be greater than zero\n     */\n    function createPool(address _tokenToStake, address _tokenReward, uint _rewardPerBlock, address _rewardTokenDataFeedAddress) external onlyOwner {\n        require(_tokenToStake != address(0), \"Bad staking token address\");\n        require(_tokenReward != address(0), \"Bad reward token address\");\n        require(_rewardTokenDataFeedAddress != address(0), \"Bad oracle address\");\n        require(_rewardPerBlock > 0, \"Reward rate must be positive\");\n\n        pools.push(\n            Pool({\n                totalStaked : 0,\n                lastUpdateBlock : block.number,\n                rewardPerBlock : _rewardPerBlock,\n                rewardPerToken : 0,\n                stakingToken : IERC20(_tokenToStake),\n                rewardToken : IERC20(_tokenReward)\n            })\n        );\n\n        emit PoolCreated(pools.length - 1);\n    }\n\n    /**\n     * @dev Deposit some token in the pool _poolId and update the rewards calculation\n     * @notice Deposit some tokens in a pool\n     *\n     * @param _poolId index of the pool in the Pool[] array\n     * @param _amount Number of token user want to deposit in the pool\n     *\n     * Emit a Staked event\n     *\n     * Requirements:\n     * - `_poolId` must exists in the Pool[] array\n     * - `_amount` must be greater than zero\n     * - `msg.sender` must own enough token to deposit\n     */\n    function deposit(uint _poolId, uint _amount) external validPool(_poolId) {\n        require(_amount > 0, \"You must deposit tokens\");\n        require(_amount <= pools[_poolId].stakingToken.balanceOf(msg.sender), \"You don't have enough token\");\n\n        _updateRewards(_poolId);\n\n        pools[_poolId].totalStaked += _amount;\n        usersInPool[_poolId][msg.sender].balance += _amount;\n\n        bool success = pools[_poolId].stakingToken.transferFrom(msg.sender, address(this), _amount);\n        assert(success);\n\n        emit Staked(_poolId, msg.sender, _amount);\n    }\n\n    /**\n     * @dev Withdraw some token from the pool _poolId, update the rewards calculation and claim reward if possible\n     * @notice Withdraw some tokens from the pool\n     *\n     * @param _poolId index of the pool in the Pool[] array\n     * @param _amount Number of token user want to withdraw from the pool\n     *\n     * Emit a Withdrawn event\n     *\n     * Requirements:\n     * - `_poolId` must exists in the Pool[] array\n     * - `_amount` must be greater than zero\n     * - `msg.sender` must have enough token in this pool\n     */\n    function withdraw(uint _poolId, uint _amount) external validPool(_poolId) {\n        require(_amount > 0, \"Invalid token amount\");\n        require(_amount <= usersInPool[_poolId][msg.sender].balance, \"Not enough token to widthdraw\");\n\n        _updateRewards(_poolId);\n\n        usersInPool[_poolId][msg.sender].balance -= _amount;\n        pools[_poolId].totalStaked -= _amount;\n        _claimReward(_poolId);\n\n        bool success = pools[_poolId].stakingToken.transfer(msg.sender, _amount);\n        assert(success);\n\n        emit Withdrawn(_poolId, msg.sender, _amount);\n    }\n\n    /**\n     * @dev Claim rewards from the pool _poolId\n     * @notice Claim rewards\n     *\n     * @param _poolId index of the pool in the Pool[] array\n     *\n     * Emit a Claimed event\n     *\n     * Requirements:\n     * - `_poolId` must exists in the Pool[] array\n     * - `msg.sender` must have rewards to claim for\n     */\n    function claim(uint _poolId) external validPool(_poolId) {\n        require(usersInPool[_poolId][msg.sender].rewardBalance > 0, \"Nothing to claim\");\n        _claimReward(_poolId);\n    }\n\n    /**\n     * @dev Return the number of claimable tokens from the pool _poolId\n     *\n     * @param _poolId index of the pool in the Pool[] array\n     *\n     * Requirements:\n     * - `_poolId` must exists in the Pool[] array\n     */\n    function getRewardToClaim(uint _poolId) external view validPool(_poolId) returns (uint) {\n        return usersInPool[_poolId][msg.sender].rewardBalance;\n    }\n\n    /**\n     * @dev Update the rewardPerToken of the pool _poolId\n     *\n     * @param _poolId index of the pool in the Pool[] array\n     *\n     */\n    function _updateRewards(uint _poolId) private {\n        pools[_poolId].rewardPerToken = _getRewardPerToken(_poolId);\n        pools[_poolId].lastUpdateBlock = block.number;\n        usersInPool[_poolId][msg.sender].rewardBalance = _getRewardsEarnedLastPeriod(_poolId);\n        usersInPool[_poolId][msg.sender].rewardPerToken = pools[_poolId].rewardPerToken;\n    }\n\n    /**\n     * @dev Return the result of the earned reward of the user\n     *\n     * @param _poolId index of the pool in the Pool[] array\n     *\n     */\n    function _getRewardsEarnedLastPeriod(uint _poolId) private view returns (uint) {\n        return (usersInPool[_poolId][msg.sender].balance * (pools[_poolId].rewardPerToken - usersInPool[_poolId][msg.sender].rewardPerToken) / 1e18) + usersInPool[_poolId][msg.sender].rewardBalance;\n    }\n\n    /**\n     * @dev Send the reward amount and reset the balance\n     */\n    function _claimReward(uint _poolId) private {\n        if (usersInPool[_poolId][msg.sender].rewardBalance > 0) {\n            uint rewardAmount = usersInPool[_poolId][msg.sender].rewardBalance;\n            usersInPool[_poolId][msg.sender].rewardBalance = 0;\n            bool success = pools[_poolId].rewardToken.transfer(msg.sender, rewardAmount);\n            assert(success);\n\n            emit Claimed(_poolId, msg.sender, rewardAmount);\n        }\n    }\n\n    /**\n     * @dev Return the result of reward per token since the last update\n     */\n    function _getRewardPerToken(uint _poolId) private view returns (uint) {\n        if (pools[_poolId].totalStaked == 0) {\n            return pools[_poolId].rewardPerToken;\n        }\n        else {\n            return pools[_poolId].rewardPerToken + (((block.number - pools[_poolId].lastUpdateBlock) * pools[_poolId].rewardPerBlock * 1e18) / pools[_poolId].totalStaked);\n        }\n    }\n\n    /**\n     * @dev Return the user balance of deposited token in the pool _poolId\n     *\n     * @param _poolId index of the pool in the Pool[] array\n     * @param _address user address\n     *\n     * Requirements:\n     * - `_poolId` must exists in the Pool[] array\n     */\n    function getUserBalance(uint _poolId, address _address) external view validPool(_poolId) returns (uint) {\n        return usersInPool[_poolId][_address].balance;\n    }\n\n    /**\n     * @dev Return the total balance of the pool _poolId\n     *\n     * @param _poolId index of the pool in the Pool[] array\n     *\n     * Requirements:\n     * - `_poolId` must exists in the Pool[] array\n     */\n    function getPoolBalance(uint _poolId) external view validPool(_poolId) returns (uint) {\n        return pools[_poolId].totalStaked;\n    }\n\n    // todo garder ? permettrait de savoir si la pool a assez de reward token\n    function getRemainingRewards(uint _poolId) external view validPool(_poolId) onlyOwner returns (uint) {\n        return pools[_poolId].rewardToken.balanceOf(address(this));\n    }\n\n}",
  "sourcePath": "/Users/mickael/Perso/Developpement/Alyra/staking-app/contracts/Staking.sol",
  "compiler": {
    "name": "solc",
    "version": "0.8.13+commit.abaa5c0e.Emscripten.clang"
  },
  "schemaVersion": "3.4.7",
  "updatedAt": "2022-05-11T23:24:44.144Z",
  "devdoc": {
    "kind": "dev",
    "methods": {
      "claim(uint256)": {
        "details": "Claim rewards from the pool _poolId",
        "params": {
          "_poolId": "index of the pool in the Pool[] array Emit a Claimed event Requirements: - `_poolId` must exists in the Pool[] array - `msg.sender` must have rewards to claim for"
        }
      },
      "createPool(address,address,uint256,address)": {
        "details": "Create a new pool",
        "params": {
          "_rewardPerBlock": "how much _tokenReward will be distributed per block",
          "_rewardTokenDataFeedAddress": "chainlink datafeed address to get the price of the _tokenReward Emit a PoolCreated event Requirements: - `msg.sender` must be the owner - `_tokenToStake` must be a valid address - `_tokenReward` must be a valid address - `_rewardTokenDataFeedAddress` must be a valid address - `_rewardPerBlock` must be greater than zero",
          "_tokenReward": "address of the rewarded token",
          "_tokenToStake": "address of the staked token"
        }
      },
      "deposit(uint256,uint256)": {
        "details": "Deposit some token in the pool _poolId and update the rewards calculation",
        "params": {
          "_amount": "Number of token user want to deposit in the pool Emit a Staked event Requirements: - `_poolId` must exists in the Pool[] array - `_amount` must be greater than zero - `msg.sender` must own enough token to deposit",
          "_poolId": "index of the pool in the Pool[] array"
        }
      },
      "getPoolBalance(uint256)": {
        "details": "Return the total balance of the pool _poolId",
        "params": {
          "_poolId": "index of the pool in the Pool[] array Requirements: - `_poolId` must exists in the Pool[] array"
        }
      },
      "getRewardToClaim(uint256)": {
        "details": "Return the number of claimable tokens from the pool _poolId",
        "params": {
          "_poolId": "index of the pool in the Pool[] array Requirements: - `_poolId` must exists in the Pool[] array"
        }
      },
      "getUserBalance(uint256,address)": {
        "details": "Return the user balance of deposited token in the pool _poolId",
        "params": {
          "_address": "user address Requirements: - `_poolId` must exists in the Pool[] array",
          "_poolId": "index of the pool in the Pool[] array"
        }
      },
      "owner()": {
        "details": "Returns the address of the current owner."
      },
      "renounceOwnership()": {
        "details": "Leaves the contract without owner. It will not be possible to call `onlyOwner` functions anymore. Can only be called by the current owner. NOTE: Renouncing ownership will leave the contract without an owner, thereby removing any functionality that is only available to the owner."
      },
      "transferOwnership(address)": {
        "details": "Transfers ownership of the contract to a new account (`newOwner`). Can only be called by the current owner."
      },
      "withdraw(uint256,uint256)": {
        "details": "Withdraw some token from the pool _poolId, update the rewards calculation and claim reward if possible",
        "params": {
          "_amount": "Number of token user want to withdraw from the pool Emit a Withdrawn event Requirements: - `_poolId` must exists in the Pool[] array - `_amount` must be greater than zero - `msg.sender` must have enough token in this pool",
          "_poolId": "index of the pool in the Pool[] array"
        }
      }
    },
    "stateVariables": {
      "usersInPool": {
        "details": "Mapping of Users in a pool"
      }
    },
    "version": 1
  },
  "userdoc": {
    "kind": "user",
    "methods": {
      "claim(uint256)": {
        "notice": "Claim rewards"
      },
      "deposit(uint256,uint256)": {
        "notice": "Deposit some tokens in a pool"
      },
      "pools(uint256)": {
        "notice": "List of pool"
      },
      "withdraw(uint256,uint256)": {
        "notice": "Withdraw some tokens from the pool"
      }
    },
    "version": 1
  }
}