{
  "contractName": "Staking",
  "abi": [
    {
      "inputs": [],
      "stateMutability": "nonpayable",
      "type": "constructor"
    },
    {
      "anonymous": false,
      "inputs": [
        {
          "indexed": true,
          "internalType": "uint256",
          "name": "pool",
          "type": "uint256"
        },
        {
          "indexed": true,
          "internalType": "address",
          "name": "user",
          "type": "address"
        },
        {
          "indexed": false,
          "internalType": "uint256",
          "name": "amount",
          "type": "uint256"
        }
      ],
      "name": "Claimed",
      "type": "event"
    },
    {
      "anonymous": false,
      "inputs": [
        {
          "indexed": true,
          "internalType": "address",
          "name": "previousOwner",
          "type": "address"
        },
        {
          "indexed": true,
          "internalType": "address",
          "name": "newOwner",
          "type": "address"
        }
      ],
      "name": "OwnershipTransferred",
      "type": "event"
    },
    {
      "anonymous": false,
      "inputs": [
        {
          "indexed": false,
          "internalType": "uint256",
          "name": "pool",
          "type": "uint256"
        }
      ],
      "name": "PoolCreated",
      "type": "event"
    },
    {
      "anonymous": false,
      "inputs": [
        {
          "indexed": true,
          "internalType": "uint256",
          "name": "pool",
          "type": "uint256"
        },
        {
          "indexed": true,
          "internalType": "address",
          "name": "user",
          "type": "address"
        },
        {
          "indexed": false,
          "internalType": "uint256",
          "name": "amount",
          "type": "uint256"
        }
      ],
      "name": "Staked",
      "type": "event"
    },
    {
      "anonymous": false,
      "inputs": [
        {
          "indexed": true,
          "internalType": "uint256",
          "name": "pool",
          "type": "uint256"
        },
        {
          "indexed": true,
          "internalType": "address",
          "name": "user",
          "type": "address"
        },
        {
          "indexed": false,
          "internalType": "uint256",
          "name": "amount",
          "type": "uint256"
        }
      ],
      "name": "Withdrawn",
      "type": "event"
    },
    {
      "inputs": [],
      "name": "owner",
      "outputs": [
        {
          "internalType": "address",
          "name": "",
          "type": "address"
        }
      ],
      "stateMutability": "view",
      "type": "function"
    },
    {
      "inputs": [
        {
          "internalType": "uint256",
          "name": "",
          "type": "uint256"
        }
      ],
      "name": "pools",
      "outputs": [
        {
          "internalType": "uint256",
          "name": "totalStaked",
          "type": "uint256"
        },
        {
          "internalType": "uint256",
          "name": "lastUpdateBlock",
          "type": "uint256"
        },
        {
          "internalType": "uint256",
          "name": "rewardPerToken",
          "type": "uint256"
        },
        {
          "internalType": "uint256",
          "name": "rewardPerBlock",
          "type": "uint256"
        },
        {
          "internalType": "contract IERC20",
          "name": "stakingToken",
          "type": "address"
        },
        {
          "internalType": "contract IERC20",
          "name": "rewardToken",
          "type": "address"
        },
        {
          "internalType": "contract PriceConsumerV3",
          "name": "rewardTokenDataFeed",
          "type": "address"
        },
        {
          "internalType": "contract PriceConsumerV3",
          "name": "stakingTokenDataFeed",
          "type": "address"
        }
      ],
      "stateMutability": "view",
      "type": "function"
    },
    {
      "inputs": [],
      "name": "renounceOwnership",
      "outputs": [],
      "stateMutability": "nonpayable",
      "type": "function"
    },
    {
      "inputs": [
        {
          "internalType": "address",
          "name": "newOwner",
          "type": "address"
        }
      ],
      "name": "transferOwnership",
      "outputs": [],
      "stateMutability": "nonpayable",
      "type": "function"
    },
    {
      "inputs": [
        {
          "internalType": "address",
          "name": "_tokenToStake",
          "type": "address"
        },
        {
          "internalType": "address",
          "name": "_tokenReward",
          "type": "address"
        },
        {
          "internalType": "uint256",
          "name": "_rewardPerBlock",
          "type": "uint256"
        },
        {
          "internalType": "address",
          "name": "_stakingTokenDataFeedAddress",
          "type": "address"
        },
        {
          "internalType": "address",
          "name": "_rewardTokenDataFeedAddress",
          "type": "address"
        }
      ],
      "name": "createPool",
      "outputs": [],
      "stateMutability": "nonpayable",
      "type": "function"
    },
    {
      "inputs": [
        {
          "internalType": "uint256",
          "name": "_poolId",
          "type": "uint256"
        },
        {
          "internalType": "uint256",
          "name": "_amount",
          "type": "uint256"
        }
      ],
      "name": "deposit",
      "outputs": [],
      "stateMutability": "nonpayable",
      "type": "function"
    },
    {
      "inputs": [
        {
          "internalType": "uint256",
          "name": "_poolId",
          "type": "uint256"
        },
        {
          "internalType": "uint256",
          "name": "_amount",
          "type": "uint256"
        }
      ],
      "name": "withdraw",
      "outputs": [],
      "stateMutability": "nonpayable",
      "type": "function"
    },
    {
      "inputs": [
        {
          "internalType": "uint256",
          "name": "_poolId",
          "type": "uint256"
        }
      ],
      "name": "claim",
      "outputs": [],
      "stateMutability": "nonpayable",
      "type": "function"
    },
    {
      "inputs": [
        {
          "internalType": "uint256",
          "name": "_poolId",
          "type": "uint256"
        }
      ],
      "name": "getRewardToClaim",
      "outputs": [
        {
          "internalType": "uint256",
          "name": "",
          "type": "uint256"
        }
      ],
      "stateMutability": "view",
      "type": "function"
    },
    {
      "inputs": [
        {
          "internalType": "uint256",
          "name": "_poolId",
          "type": "uint256"
        },
        {
          "internalType": "address",
          "name": "_address",
          "type": "address"
        }
      ],
      "name": "getUserBalance",
      "outputs": [
        {
          "internalType": "uint256",
          "name": "",
          "type": "uint256"
        }
      ],
      "stateMutability": "view",
      "type": "function"
    },
    {
      "inputs": [
        {
          "internalType": "uint256",
          "name": "_poolId",
          "type": "uint256"
        }
      ],
      "name": "getPoolBalance",
      "outputs": [
        {
          "internalType": "uint256",
          "name": "",
          "type": "uint256"
        }
      ],
      "stateMutability": "view",
      "type": "function"
    },
    {
      "inputs": [
        {
          "internalType": "uint256",
          "name": "_poolId",
          "type": "uint256"
        }
      ],
      "name": "getRewardPrice",
      "outputs": [
        {
          "internalType": "int256",
          "name": "",
          "type": "int256"
        }
      ],
      "stateMutability": "view",
      "type": "function"
    },
    {
      "inputs": [
        {
          "internalType": "uint256",
          "name": "_poolId",
          "type": "uint256"
        }
      ],
      "name": "getTokenPrice",
      "outputs": [
        {
          "internalType": "int256",
          "name": "",
          "type": "int256"
        }
      ],
      "stateMutability": "view",
      "type": "function"
    },
    {
      "inputs": [
        {
          "internalType": "uint256",
          "name": "_poolId",
          "type": "uint256"
        }
      ],
      "name": "getRemainingRewards",
      "outputs": [
        {
          "internalType": "uint256",
          "name": "",
          "type": "uint256"
        }
      ],
      "stateMutability": "view",
      "type": "function"
    }
  ],
  "bytecode": "0x60806040523480156200001157600080fd5b50620000446200002f6200004a640100000000026401000000009004565b62000052640100000000026401000000009004565b62000116565b600033905090565b60008060009054906101000a900473ffffffffffffffffffffffffffffffffffffffff169050816000806101000a81548173ffffffffffffffffffffffffffffffffffffffff021916908373ffffffffffffffffffffffffffffffffffffffff1602179055508173ffffffffffffffffffffffffffffffffffffffff168173ffffffffffffffffffffffffffffffffffffffff167f8be0079c531659141344cd1fd0a4f28419497f9722a3daafe3b4186f6b6457e060405160405180910390a35050565b61315780620001266000396000f3fe60806040523480156200001157600080fd5b50600436106200011d576000357c010000000000000000000000000000000000000000000000000000000090048063a495884511620000b6578063cdfb6cf3116200008c578063cdfb6cf314620002c5578063e2bbb15814620002fb578063ed1375d5146200031b578063f2fde38b1462000351576200011d565b8063a4958845146200021c578063ac4afa381462000252578063c457fb37146200028f576200011d565b80636a07f36611620000f85780636a07f3661462000198578063715018a614620001ce5780638b96598e14620001da5780638da5cb5b14620001fa576200011d565b8063379607f51462000122578063441a3e701462000142578063541894c31462000162575b600080fd5b6200014060048036038101906200013a9190620020c5565b62000371565b005b6200016060048036038101906200015a9190620020f7565b6200046f565b005b6200018060048036038101906200017a9190620020c5565b620007af565b6040516200018f919062002159565b60405180910390f35b620001b66004803603810190620001b09190620020c5565b620008da565b604051620001c5919062002187565b60405180910390f35b620001d862000983565b005b620001f86004803603810190620001f2919062002209565b62000a14565b005b6200020462000f6c565b604051620002139190620022a2565b60405180910390f35b6200023a6004803603810190620002349190620020c5565b62000f95565b60405162000249919062002187565b60405180910390f35b6200027060048036038101906200026a9190620020c5565b62001150565b604051620002869897969594939291906200234f565b60405180910390f35b620002ad6004803603810190620002a79190620020c5565b62001229565b604051620002bc919062002159565b60405180910390f35b620002e36004803603810190620002dd9190620023dd565b62001354565b604051620002f2919062002187565b60405180910390f35b620003196004803603810190620003139190620020f7565b620013fe565b005b620003396004803603810190620003339190620020c5565b620017c4565b60405162000348919062002187565b60405180910390f35b6200036f600480360381019062000369919062002424565b62001842565b005b806001805490508110620003bc576040517f08c379a0000000000000000000000000000000000000000000000000000000008152600401620003b390620024b7565b60405180910390fd5b60006002600084815260200190815260200160002060003373ffffffffffffffffffffffffffffffffffffffff1673ffffffffffffffffffffffffffffffffffffffff168152602001908152602001600020600101541162000455576040517f08c379a00000000000000000000000000000000000000000000000000000000081526004016200044c9062002529565b60405180910390fd5b620004608262001945565b6200046b8262001a8e565b5050565b816001805490508110620004ba576040517f08c379a0000000000000000000000000000000000000000000000000000000008152600401620004b190620024b7565b60405180910390fd5b6000821162000500576040517f08c379a0000000000000000000000000000000000000000000000000000000008152600401620004f7906200259b565b60405180910390fd5b6002600084815260200190815260200160002060003373ffffffffffffffffffffffffffffffffffffffff1673ffffffffffffffffffffffffffffffffffffffff1681526020019081526020016000206000015482111562000599576040517f08c379a000000000000000000000000000000000000000000000000000000000815260040162000590906200260d565b60405180910390fd5b620005a48362001945565b816002600085815260200190815260200160002060003373ffffffffffffffffffffffffffffffffffffffff1673ffffffffffffffffffffffffffffffffffffffff16815260200190815260200160002060000160008282546200060991906200265e565b92505081905550816001848154811062000628576200062762002699565b5b906000526020600020906008020160000160008282546200064a91906200265e565b925050819055506200065c8362001a8e565b60006001848154811062000675576200067462002699565b5b906000526020600020906008020160040160009054906101000a900473ffffffffffffffffffffffffffffffffffffffff1673ffffffffffffffffffffffffffffffffffffffff1663a9059cbb33856040518363ffffffff167c0100000000000000000000000000000000000000000000000000000000028152600401620006ff929190620026c8565b6020604051808303816000875af11580156200071f573d6000803e3d6000fd5b505050506040513d601f19601f8201168201806040525081019062000745919062002732565b90508062000758576200075762002764565b5b3373ffffffffffffffffffffffffffffffffffffffff16847fcf7d23a3cbe4e8b36ff82fd1b05b1b17373dc7804b4ebbd6e2356716ef20237285604051620007a1919062002187565b60405180910390a350505050565b6000816001805490508110620007fc576040517f08c379a0000000000000000000000000000000000000000000000000000000008152600401620007f390620024b7565b60405180910390fd5b6001838154811062000813576200081262002699565b5b906000526020600020906008020160060160009054906101000a900473ffffffffffffffffffffffffffffffffffffffff1673ffffffffffffffffffffffffffffffffffffffff16638e15f4736040518163ffffffff167c0100000000000000000000000000000000000000000000000000000000028152600401602060405180830381865afa158015620008ac573d6000803e3d6000fd5b505050506040513d601f19601f82011682018060405250810190620008d29190620027c4565b915050919050565b600081600180549050811062000927576040517f08c379a00000000000000000000000000000000000000000000000000000000081526004016200091e90620024b7565b60405180910390fd5b6002600084815260200190815260200160002060003373ffffffffffffffffffffffffffffffffffffffff1673ffffffffffffffffffffffffffffffffffffffff16815260200190815260200160002060010154915050919050565b6200098d62001cef565b73ffffffffffffffffffffffffffffffffffffffff16620009ad62000f6c565b73ffffffffffffffffffffffffffffffffffffffff161462000a06576040517f08c379a0000000000000000000000000000000000000000000000000000000008152600401620009fd9062002846565b60405180910390fd5b62000a12600062001cf7565b565b62000a1e62001cef565b73ffffffffffffffffffffffffffffffffffffffff1662000a3e62000f6c565b73ffffffffffffffffffffffffffffffffffffffff161462000a97576040517f08c379a000000000000000000000000000000000000000000000000000000000815260040162000a8e9062002846565b60405180910390fd5b600073ffffffffffffffffffffffffffffffffffffffff168573ffffffffffffffffffffffffffffffffffffffff160362000b09576040517f08c379a000000000000000000000000000000000000000000000000000000000815260040162000b0090620028b8565b60405180910390fd5b600073ffffffffffffffffffffffffffffffffffffffff168473ffffffffffffffffffffffffffffffffffffffff160362000b7b576040517f08c379a000000000000000000000000000000000000000000000000000000000815260040162000b72906200292a565b60405180910390fd5b600073ffffffffffffffffffffffffffffffffffffffff168173ffffffffffffffffffffffffffffffffffffffff160362000bed576040517f08c379a000000000000000000000000000000000000000000000000000000000815260040162000be4906200299c565b60405180910390fd5b600073ffffffffffffffffffffffffffffffffffffffff168273ffffffffffffffffffffffffffffffffffffffff160362000c5f576040517f08c379a000000000000000000000000000000000000000000000000000000000815260040162000c56906200299c565b60405180910390fd5b6000831162000ca5576040517f08c379a000000000000000000000000000000000000000000000000000000000815260040162000c9c9062002a0e565b60405180910390fd5b600160405180610100016040528060008152602001438152602001600081526020018581526020018773ffffffffffffffffffffffffffffffffffffffff1681526020018673ffffffffffffffffffffffffffffffffffffffff1681526020018360405162000d149062002077565b62000d209190620022a2565b604051809103906000f08015801562000d3d573d6000803e3d6000fd5b5073ffffffffffffffffffffffffffffffffffffffff1681526020018460405162000d689062002077565b62000d749190620022a2565b604051809103906000f08015801562000d91573d6000803e3d6000fd5b5073ffffffffffffffffffffffffffffffffffffffff1681525090806001815401808255809150506001900390600052602060002090600802016000909190919091506000820151816000015560208201518160010155604082015181600201556060820151816003015560808201518160040160006101000a81548173ffffffffffffffffffffffffffffffffffffffff021916908373ffffffffffffffffffffffffffffffffffffffff16021790555060a08201518160050160006101000a81548173ffffffffffffffffffffffffffffffffffffffff021916908373ffffffffffffffffffffffffffffffffffffffff16021790555060c08201518160060160006101000a81548173ffffffffffffffffffffffffffffffffffffffff021916908373ffffffffffffffffffffffffffffffffffffffff16021790555060e08201518160070160006101000a81548173ffffffffffffffffffffffffffffffffffffffff021916908373ffffffffffffffffffffffffffffffffffffffff16021790555050507ffa88d81eaffbf548e3ffc6c6458827ce9906ad714060746b80909cdf8d1d7ef76001808054905062000f4e91906200265e565b60405162000f5d919062002187565b60405180910390a15050505050565b60008060009054906101000a900473ffffffffffffffffffffffffffffffffffffffff16905090565b600081600180549050811062000fe2576040517f08c379a000000000000000000000000000000000000000000000000000000000815260040162000fd990620024b7565b60405180910390fd5b62000fec62001cef565b73ffffffffffffffffffffffffffffffffffffffff166200100c62000f6c565b73ffffffffffffffffffffffffffffffffffffffff161462001065576040517f08c379a00000000000000000000000000000000000000000000000000000000081526004016200105c9062002846565b60405180910390fd5b600183815481106200107c576200107b62002699565b5b906000526020600020906008020160050160009054906101000a900473ffffffffffffffffffffffffffffffffffffffff1673ffffffffffffffffffffffffffffffffffffffff166370a08231306040518263ffffffff167c0100000000000000000000000000000000000000000000000000000000028152600401620011049190620022a2565b602060405180830381865afa15801562001122573d6000803e3d6000fd5b505050506040513d601f19601f8201168201806040525081019062001148919062002a47565b915050919050565b600181815481106200116157600080fd5b90600052602060002090600802016000915090508060000154908060010154908060020154908060030154908060040160009054906101000a900473ffffffffffffffffffffffffffffffffffffffff16908060050160009054906101000a900473ffffffffffffffffffffffffffffffffffffffff16908060060160009054906101000a900473ffffffffffffffffffffffffffffffffffffffff16908060070160009054906101000a900473ffffffffffffffffffffffffffffffffffffffff16905088565b600081600180549050811062001276576040517f08c379a00000000000000000000000000000000000000000000000000000000081526004016200126d90620024b7565b60405180910390fd5b600183815481106200128d576200128c62002699565b5b906000526020600020906008020160070160009054906101000a900473ffffffffffffffffffffffffffffffffffffffff1673ffffffffffffffffffffffffffffffffffffffff16638e15f4736040518163ffffffff167c0100000000000000000000000000000000000000000000000000000000028152600401602060405180830381865afa15801562001326573d6000803e3d6000fd5b505050506040513d601f19601f820116820180604052508101906200134c9190620027c4565b915050919050565b6000826001805490508110620013a1576040517f08c379a00000000000000000000000000000000000000000000000000000000081526004016200139890620024b7565b60405180910390fd5b6002600085815260200190815260200160002060008473ffffffffffffffffffffffffffffffffffffffff1673ffffffffffffffffffffffffffffffffffffffff1681526020019081526020016000206000015491505092915050565b81600180549050811062001449576040517f08c379a00000000000000000000000000000000000000000000000000000000081526004016200144090620024b7565b60405180910390fd5b600082116200148f576040517f08c379a0000000000000000000000000000000000000000000000000000000008152600401620014869062002ac9565b60405180910390fd5b60018381548110620014a657620014a562002699565b5b906000526020600020906008020160040160009054906101000a900473ffffffffffffffffffffffffffffffffffffffff1673ffffffffffffffffffffffffffffffffffffffff166370a08231336040518263ffffffff167c01000000000000000000000000000000000000000000000000000000000281526004016200152e9190620022a2565b602060405180830381865afa1580156200154c573d6000803e3d6000fd5b505050506040513d601f19601f8201168201806040525081019062001572919062002a47565b821115620015b7576040517f08c379a0000000000000000000000000000000000000000000000000000000008152600401620015ae9062002b3b565b60405180910390fd5b620015c28362001945565b8160018481548110620015da57620015d962002699565b5b90600052602060002090600802016000016000828254620015fc919062002b5d565b92505081905550816002600085815260200190815260200160002060003373ffffffffffffffffffffffffffffffffffffffff1673ffffffffffffffffffffffffffffffffffffffff168152602001908152602001600020600001600082825462001668919062002b5d565b9250508190555060006001848154811062001688576200168762002699565b5b906000526020600020906008020160040160009054906101000a900473ffffffffffffffffffffffffffffffffffffffff1673ffffffffffffffffffffffffffffffffffffffff166323b872dd3330866040518463ffffffff167c0100000000000000000000000000000000000000000000000000000000028152600401620017149392919062002bba565b6020604051808303816000875af115801562001734573d6000803e3d6000fd5b505050506040513d601f19601f820116820180604052508101906200175a919062002732565b9050806200176d576200176c62002764565b5b3373ffffffffffffffffffffffffffffffffffffffff16847f18dcd430020e4d4899772fd94a8b40451dc5044dfb70bc46b532eeae431c864f85604051620017b6919062002187565b60405180910390a350505050565b600081600180549050811062001811576040517f08c379a00000000000000000000000000000000000000000000000000000000081526004016200180890620024b7565b60405180910390fd5b6001838154811062001828576200182762002699565b5b906000526020600020906008020160000154915050919050565b6200184c62001cef565b73ffffffffffffffffffffffffffffffffffffffff166200186c62000f6c565b73ffffffffffffffffffffffffffffffffffffffff1614620018c5576040517f08c379a0000000000000000000000000000000000000000000000000000000008152600401620018bc9062002846565b60405180910390fd5b600073ffffffffffffffffffffffffffffffffffffffff168173ffffffffffffffffffffffffffffffffffffffff160362001937576040517f08c379a00000000000000000000000000000000000000000000000000000000081526004016200192e9062002c6d565b60405180910390fd5b620019428162001cf7565b50565b620019508162001dbb565b6001828154811062001967576200196662002699565b5b906000526020600020906008020160020181905550436001828154811062001994576200199362002699565b5b906000526020600020906008020160010181905550620019b48162001f10565b6002600083815260200190815260200160002060003373ffffffffffffffffffffffffffffffffffffffff1673ffffffffffffffffffffffffffffffffffffffff168152602001908152602001600020600101819055506001818154811062001a225762001a2162002699565b5b9060005260206000209060080201600201546002600083815260200190815260200160002060003373ffffffffffffffffffffffffffffffffffffffff1673ffffffffffffffffffffffffffffffffffffffff1681526020019081526020016000206003018190555050565b60006002600083815260200190815260200160002060003373ffffffffffffffffffffffffffffffffffffffff1673ffffffffffffffffffffffffffffffffffffffff16815260200190815260200160002060010154111562001cec5760006002600083815260200190815260200160002060003373ffffffffffffffffffffffffffffffffffffffff1673ffffffffffffffffffffffffffffffffffffffff16815260200190815260200160002060010154905060006002600084815260200190815260200160002060003373ffffffffffffffffffffffffffffffffffffffff1673ffffffffffffffffffffffffffffffffffffffff1681526020019081526020016000206001018190555060006001838154811062001bb55762001bb462002699565b5b906000526020600020906008020160050160009054906101000a900473ffffffffffffffffffffffffffffffffffffffff1673ffffffffffffffffffffffffffffffffffffffff1663a9059cbb33846040518363ffffffff167c010000000000000000000000000000000000000000000000000000000002815260040162001c3f929190620026c8565b6020604051808303816000875af115801562001c5f573d6000803e3d6000fd5b505050506040513d601f19601f8201168201806040525081019062001c85919062002732565b90508062001c985762001c9762002764565b5b3373ffffffffffffffffffffffffffffffffffffffff16837f4ec90e965519d92681267467f775ada5bd214aa92c0dc93d90a5e880ce9ed0268460405162001ce1919062002187565b60405180910390a350505b50565b600033905090565b60008060009054906101000a900473ffffffffffffffffffffffffffffffffffffffff169050816000806101000a81548173ffffffffffffffffffffffffffffffffffffffff021916908373ffffffffffffffffffffffffffffffffffffffff1602179055508173ffffffffffffffffffffffffffffffffffffffff168173ffffffffffffffffffffffffffffffffffffffff167f8be0079c531659141344cd1fd0a4f28419497f9722a3daafe3b4186f6b6457e060405160405180910390a35050565b6000806001838154811062001dd55762001dd462002699565b5b9060005260206000209060080201600001540362001e1e576001828154811062001e045762001e0362002699565b5b906000526020600020906008020160020154905062001f0b565b6001828154811062001e355762001e3462002699565b5b906000526020600020906008020160000154670de0b6b3a76400006001848154811062001e675762001e6662002699565b5b9060005260206000209060080201600301546001858154811062001e905762001e8f62002699565b5b9060005260206000209060080201600101544362001eaf91906200265e565b62001ebb919062002c8f565b62001ec7919062002c8f565b62001ed3919062002d1f565b6001838154811062001eea5762001ee962002699565b5b90600052602060002090600802016002015462001f08919062002b5d565b90505b919050565b60006002600083815260200190815260200160002060003373ffffffffffffffffffffffffffffffffffffffff1673ffffffffffffffffffffffffffffffffffffffff16815260200190815260200160002060010154670de0b6b3a76400006002600085815260200190815260200160002060003373ffffffffffffffffffffffffffffffffffffffff1673ffffffffffffffffffffffffffffffffffffffff168152602001908152602001600020600301546001858154811062001fda5762001fd962002699565b5b90600052602060002090600802016002015462001ff891906200265e565b6002600086815260200190815260200160002060003373ffffffffffffffffffffffffffffffffffffffff1673ffffffffffffffffffffffffffffffffffffffff1681526020019081526020016000206000015462002058919062002c8f565b62002064919062002d1f565b62002070919062002b5d565b9050919050565b6103ca8062002d5883390190565b600080fd5b6000819050919050565b6200209f816200208a565b8114620020ab57600080fd5b50565b600081359050620020bf8162002094565b92915050565b600060208284031215620020de57620020dd62002085565b5b6000620020ee84828501620020ae565b91505092915050565b6000806040838503121562002111576200211062002085565b5b60006200212185828601620020ae565b92505060206200213485828601620020ae565b9150509250929050565b6000819050919050565b62002153816200213e565b82525050565b600060208201905062002170600083018462002148565b92915050565b62002181816200208a565b82525050565b60006020820190506200219e600083018462002176565b92915050565b600073ffffffffffffffffffffffffffffffffffffffff82169050919050565b6000620021d182620021a4565b9050919050565b620021e381620021c4565b8114620021ef57600080fd5b50565b6000813590506200220381620021d8565b92915050565b600080600080600060a0868803121562002228576200222762002085565b5b60006200223888828901620021f2565b95505060206200224b88828901620021f2565b94505060406200225e88828901620020ae565b93505060606200227188828901620021f2565b92505060806200228488828901620021f2565b9150509295509295909350565b6200229c81620021c4565b82525050565b6000602082019050620022b9600083018462002291565b92915050565b6000819050919050565b6000620022ea620022e4620022de84620021a4565b620022bf565b620021a4565b9050919050565b6000620022fe82620022c9565b9050919050565b60006200231282620022f1565b9050919050565b620023248162002305565b82525050565b60006200233782620022f1565b9050919050565b62002349816200232a565b82525050565b60006101008201905062002367600083018b62002176565b62002376602083018a62002176565b62002385604083018962002176565b62002394606083018862002176565b620023a3608083018762002319565b620023b260a083018662002319565b620023c160c08301856200233e565b620023d060e08301846200233e565b9998505050505050505050565b60008060408385031215620023f757620023f662002085565b5b60006200240785828601620020ae565b92505060206200241a85828601620021f2565b9150509250929050565b6000602082840312156200243d576200243c62002085565b5b60006200244d84828501620021f2565b91505092915050565b600082825260208201905092915050565b7f506f6f6c206e6f7420666f756e64000000000000000000000000000000000000600082015250565b60006200249f600e8362002456565b9150620024ac8262002467565b602082019050919050565b60006020820190508181036000830152620024d28162002490565b9050919050565b7f4e6f7468696e6720746f20636c61696d00000000000000000000000000000000600082015250565b60006200251160108362002456565b91506200251e82620024d9565b602082019050919050565b60006020820190508181036000830152620025448162002502565b9050919050565b7f496e76616c696420746f6b656e20616d6f756e74000000000000000000000000600082015250565b60006200258360148362002456565b915062002590826200254b565b602082019050919050565b60006020820190508181036000830152620025b68162002574565b9050919050565b7f4e6f7420656e6f75676820746f6b656e20746f20776964746864726177000000600082015250565b6000620025f5601d8362002456565b91506200260282620025bd565b602082019050919050565b600060208201905081810360008301526200262881620025e6565b9050919050565b7f4e487b7100000000000000000000000000000000000000000000000000000000600052601160045260246000fd5b60006200266b826200208a565b915062002678836200208a565b9250828210156200268e576200268d6200262f565b5b828203905092915050565b7f4e487b7100000000000000000000000000000000000000000000000000000000600052603260045260246000fd5b6000604082019050620026df600083018562002291565b620026ee602083018462002176565b9392505050565b60008115159050919050565b6200270c81620026f5565b81146200271857600080fd5b50565b6000815190506200272c8162002701565b92915050565b6000602082840312156200274b576200274a62002085565b5b60006200275b848285016200271b565b91505092915050565b7f4e487b7100000000000000000000000000000000000000000000000000000000600052600160045260246000fd5b6200279e816200213e565b8114620027aa57600080fd5b50565b600081519050620027be8162002793565b92915050565b600060208284031215620027dd57620027dc62002085565b5b6000620027ed84828501620027ad565b91505092915050565b7f4f776e61626c653a2063616c6c6572206973206e6f7420746865206f776e6572600082015250565b60006200282e60208362002456565b91506200283b82620027f6565b602082019050919050565b6000602082019050818103600083015262002861816200281f565b9050919050565b7f426164207374616b696e6720746f6b656e206164647265737300000000000000600082015250565b6000620028a060198362002456565b9150620028ad8262002868565b602082019050919050565b60006020820190508181036000830152620028d38162002891565b9050919050565b7f4261642072657761726420746f6b656e20616464726573730000000000000000600082015250565b60006200291260188362002456565b91506200291f82620028da565b602082019050919050565b60006020820190508181036000830152620029458162002903565b9050919050565b7f426164206f7261636c6520616464726573730000000000000000000000000000600082015250565b60006200298460128362002456565b915062002991826200294c565b602082019050919050565b60006020820190508181036000830152620029b78162002975565b9050919050565b7f5265776172642072617465206d75737420626520706f73697469766500000000600082015250565b6000620029f6601c8362002456565b915062002a0382620029be565b602082019050919050565b6000602082019050818103600083015262002a2981620029e7565b9050919050565b60008151905062002a418162002094565b92915050565b60006020828403121562002a605762002a5f62002085565b5b600062002a708482850162002a30565b91505092915050565b7f596f75206d757374206465706f73697420746f6b656e73000000000000000000600082015250565b600062002ab160178362002456565b915062002abe8262002a79565b602082019050919050565b6000602082019050818103600083015262002ae48162002aa2565b9050919050565b7f596f7520646f6e2774206861766520656e6f75676820746f6b656e0000000000600082015250565b600062002b23601b8362002456565b915062002b308262002aeb565b602082019050919050565b6000602082019050818103600083015262002b568162002b14565b9050919050565b600062002b6a826200208a565b915062002b77836200208a565b9250827fffffffffffffffffffffffffffffffffffffffffffffffffffffffffffffffff0382111562002baf5762002bae6200262f565b5b828201905092915050565b600060608201905062002bd1600083018662002291565b62002be0602083018562002291565b62002bef604083018462002176565b949350505050565b7f4f776e61626c653a206e6577206f776e657220697320746865207a65726f206160008201527f6464726573730000000000000000000000000000000000000000000000000000602082015250565b600062002c5560268362002456565b915062002c628262002bf7565b604082019050919050565b6000602082019050818103600083015262002c888162002c46565b9050919050565b600062002c9c826200208a565b915062002ca9836200208a565b9250817fffffffffffffffffffffffffffffffffffffffffffffffffffffffffffffffff048311821515161562002ce55762002ce46200262f565b5b828202905092915050565b7f4e487b7100000000000000000000000000000000000000000000000000000000600052601260045260246000fd5b600062002d2c826200208a565b915062002d39836200208a565b92508262002d4c5762002d4b62002cf0565b5b82820490509291505056fe60a060405234801561001057600080fd5b506040516103ca3803806103ca833981810160405281019061003291906100cf565b8073ffffffffffffffffffffffffffffffffffffffff1660808173ffffffffffffffffffffffffffffffffffffffff1681525050506100fc565b600080fd5b600073ffffffffffffffffffffffffffffffffffffffff82169050919050565b600061009c82610071565b9050919050565b6100ac81610091565b81146100b757600080fd5b50565b6000815190506100c9816100a3565b92915050565b6000602082840312156100e5576100e461006c565b5b60006100f3848285016100ba565b91505092915050565b6080516102b46101166000396000607001526102b46000f3fe608060405234801561001057600080fd5b5060043610610048576000357c0100000000000000000000000000000000000000000000000000000000900480638e15f4731461004d575b600080fd5b61005561006b565b604051610062919061013f565b60405180910390f35b6000807f000000000000000000000000000000000000000000000000000000000000000073ffffffffffffffffffffffffffffffffffffffff1663feaf968c6040518163ffffffff167c010000000000000000000000000000000000000000000000000000000002815260040160a060405180830381865afa1580156100f5573d6000803e3d6000fd5b505050506040513d601f19601f820116820180604052508101906101199190610203565b5050509150508091505090565b6000819050919050565b61013981610126565b82525050565b60006020820190506101546000830184610130565b92915050565b600080fd5b600069ffffffffffffffffffff82169050919050565b61017e8161015f565b811461018957600080fd5b50565b60008151905061019b81610175565b92915050565b6101aa81610126565b81146101b557600080fd5b50565b6000815190506101c7816101a1565b92915050565b6000819050919050565b6101e0816101cd565b81146101eb57600080fd5b50565b6000815190506101fd816101d7565b92915050565b600080600080600060a0868803121561021f5761021e61015a565b5b600061022d8882890161018c565b955050602061023e888289016101b8565b945050604061024f888289016101ee565b9350506060610260888289016101ee565b92505060806102718882890161018c565b915050929550929590935056fea26469706673582212208572857e05f7935802eb346a98065690b5ae2867e1b17aba2001ad0026b1a8f364736f6c634300080d0033a26469706673582212208cd7a31c8b7dc25345572b364ebcacf0e930de9cae70083a40b9f9d42722364f64736f6c634300080d0033",
  "immutableReferences": {},
  "source": "// SPDX-License-Identifier: MIT\npragma solidity 0.8.13;\n\nimport \"@openzeppelin/contracts/access/Ownable.sol\";\nimport \"@openzeppelin/contracts/token/ERC20/IERC20.sol\";\nimport \"./PriceConsumerV3.sol\";\n\ncontract Staking is Ownable {\n\n    /// List of pool\n    Pool[] public pools;\n\n    /// @dev Mapping of Users in a pool\n    mapping(uint => mapping(address => User)) private usersInPool;\n\n    /// @dev User who stack\n    struct User {\n        uint balance;\n        uint rewardBalance;\n        uint totalClaimedRewards;\n        uint rewardPerToken;\n    }\n\n    /// @dev Pool details\n    struct Pool {\n        uint totalStaked;\n        uint lastUpdateBlock;\n        uint rewardPerToken;\n        uint rewardPerBlock;\n        IERC20 stakingToken;\n        IERC20 rewardToken;\n        PriceConsumerV3 rewardTokenDataFeed;\n        PriceConsumerV3 stakingTokenDataFeed;\n    }\n\n    event PoolCreated(uint pool);\n    event Staked(uint indexed pool, address indexed user, uint amount);\n    event Withdrawn(uint indexed pool, address indexed user, uint amount);\n    event Claimed(uint indexed pool, address indexed user, uint amount);\n\n    /// @dev revert if pool index is not on the Pool[] array\n    modifier validPool(uint _poolId) {\n        require(_poolId < pools.length, \"Pool not found\");\n        _;\n    }\n\n    constructor() {\n\n    }\n\n    /**\n     * @dev Create a new pool\n     *\n     * @param _tokenToStake address of the staked token\n     * @param _tokenReward address of the rewarded token\n     * @param _rewardPerBlock how much _tokenReward will be distributed per block\n     * @param _rewardTokenDataFeedAddress chainlink datafeed address to get the price of the _tokenReward\n     *\n     * Emit a PoolCreated event\n     *\n     * Requirements:\n     * - `msg.sender` must be the owner\n     * - `_tokenToStake` must be a valid address\n     * - `_tokenReward` must be a valid address\n     * - `_rewardTokenDataFeedAddress` must be a valid address\n     * - `_rewardPerBlock` must be greater than zero\n     */\n    function createPool(address _tokenToStake, address _tokenReward, uint _rewardPerBlock, address _stakingTokenDataFeedAddress, address _rewardTokenDataFeedAddress) external onlyOwner {\n        require(_tokenToStake != address(0), \"Bad staking token address\");\n        require(_tokenReward != address(0), \"Bad reward token address\");\n        require(_rewardTokenDataFeedAddress != address(0), \"Bad oracle address\");\n        require(_stakingTokenDataFeedAddress != address(0), \"Bad oracle address\");\n        require(_rewardPerBlock > 0, \"Reward rate must be positive\");\n\n        pools.push(\n            Pool({\n                totalStaked : 0,\n                lastUpdateBlock : block.number,\n                rewardPerBlock : _rewardPerBlock,\n                rewardPerToken : 0,\n                rewardToken : IERC20(_tokenReward),\n                rewardTokenDataFeed: new PriceConsumerV3(_rewardTokenDataFeedAddress),\n                stakingToken : IERC20(_tokenToStake),\n                stakingTokenDataFeed: new PriceConsumerV3(_stakingTokenDataFeedAddress)\n            })\n        );\n\n        emit PoolCreated(pools.length - 1);\n    }\n\n    /**\n     * @dev Deposit some token in the pool _poolId and update the rewards calculation\n     * @notice Deposit some tokens in a pool\n     *\n     * @param _poolId index of the pool in the Pool[] array\n     * @param _amount Number of token user want to deposit in the pool\n     *\n     * Emit a Staked event\n     *\n     * Requirements:\n     * - `_poolId` must exists in the Pool[] array\n     * - `_amount` must be greater than zero\n     * - `msg.sender` must own enough token to deposit\n     */\n    function deposit(uint _poolId, uint _amount) external validPool(_poolId) {\n        require(_amount > 0, \"You must deposit tokens\");\n        require(_amount <= pools[_poolId].stakingToken.balanceOf(msg.sender), \"You don't have enough token\");\n\n        _updateRewards(_poolId);\n\n        pools[_poolId].totalStaked += _amount;\n        usersInPool[_poolId][msg.sender].balance += _amount;\n\n        bool success = pools[_poolId].stakingToken.transferFrom(msg.sender, address(this), _amount);\n        assert(success);\n\n        emit Staked(_poolId, msg.sender, _amount);\n    }\n\n    /**\n     * @dev Withdraw some token from the pool _poolId, update the rewards calculation and claim reward if possible\n     * @notice Withdraw some tokens from the pool\n     *\n     * @param _poolId index of the pool in the Pool[] array\n     * @param _amount Number of token user want to withdraw from the pool\n     *\n     * Emit a Withdrawn event\n     *\n     * Requirements:\n     * - `_poolId` must exists in the Pool[] array\n     * - `_amount` must be greater than zero\n     * - `msg.sender` must have enough token in this pool\n     */\n    function withdraw(uint _poolId, uint _amount) external validPool(_poolId) {\n        require(_amount > 0, \"Invalid token amount\");\n        require(_amount <= usersInPool[_poolId][msg.sender].balance, \"Not enough token to widthdraw\");\n\n        _updateRewards(_poolId);\n\n        usersInPool[_poolId][msg.sender].balance -= _amount;\n        pools[_poolId].totalStaked -= _amount;\n        _claimReward(_poolId);\n\n        bool success = pools[_poolId].stakingToken.transfer(msg.sender, _amount);\n        assert(success);\n\n        emit Withdrawn(_poolId, msg.sender, _amount);\n    }\n\n    /**\n     * @dev Claim rewards from the pool _poolId\n     * @notice Claim rewards\n     *\n     * @param _poolId index of the pool in the Pool[] array\n     *\n     * Emit a Claimed event\n     *\n     * Requirements:\n     * - `_poolId` must exists in the Pool[] array\n     * - `msg.sender` must have rewards to claim for\n     */\n    function claim(uint _poolId) external validPool(_poolId) {\n        require(usersInPool[_poolId][msg.sender].rewardBalance > 0, \"Nothing to claim\");\n\n        _updateRewards(_poolId);\n\n        _claimReward(_poolId);\n    }\n\n    /**\n     * @dev Return the number of claimable tokens from the pool _poolId\n     *\n     * @param _poolId index of the pool in the Pool[] array\n     *\n     * Requirements:\n     * - `_poolId` must exists in the Pool[] array\n     */\n    function getRewardToClaim(uint _poolId) external view validPool(_poolId) returns (uint) {\n        return usersInPool[_poolId][msg.sender].rewardBalance;\n    }\n\n    /**\n     * @dev Update the rewardPerToken of the pool _poolId\n     *\n     * @param _poolId index of the pool in the Pool[] array\n     *\n     */\n    function _updateRewards(uint _poolId) private {\n        pools[_poolId].rewardPerToken = _getRewardPerToken(_poolId);\n        pools[_poolId].lastUpdateBlock = block.number;\n        usersInPool[_poolId][msg.sender].rewardBalance = _getRewardsEarnedLastPeriod(_poolId);\n        usersInPool[_poolId][msg.sender].rewardPerToken = pools[_poolId].rewardPerToken;\n    }\n\n    /**\n     * @dev Return the result of the earned reward of the user\n     *\n     * @param _poolId index of the pool in the Pool[] array\n     *\n     */\n    function _getRewardsEarnedLastPeriod(uint _poolId) private view returns (uint) {\n        return (usersInPool[_poolId][msg.sender].balance * (pools[_poolId].rewardPerToken - usersInPool[_poolId][msg.sender].rewardPerToken) / 1e18) + usersInPool[_poolId][msg.sender].rewardBalance;\n    }\n\n    /**\n     * @dev Send the reward amount and reset the balance\n     */\n    function _claimReward(uint _poolId) private {\n        if (usersInPool[_poolId][msg.sender].rewardBalance > 0) {\n            uint rewardAmount = usersInPool[_poolId][msg.sender].rewardBalance;\n            usersInPool[_poolId][msg.sender].rewardBalance = 0;\n            bool success = pools[_poolId].rewardToken.transfer(msg.sender, rewardAmount);\n            assert(success);\n\n            emit Claimed(_poolId, msg.sender, rewardAmount);\n        }\n    }\n\n    /**\n     * @dev Return the result of reward per token since the last update\n     */\n    function _getRewardPerToken(uint _poolId) private view returns (uint) {\n        if (pools[_poolId].totalStaked == 0) {\n            return pools[_poolId].rewardPerToken;\n        }\n        else {\n            return pools[_poolId].rewardPerToken + (((block.number - pools[_poolId].lastUpdateBlock) * pools[_poolId].rewardPerBlock * 1e18) / pools[_poolId].totalStaked);\n        }\n    }\n\n    /**\n     * @dev Return the user balance of deposited token in the pool _poolId\n     *\n     * @param _poolId index of the pool in the Pool[] array\n     * @param _address user address\n     *\n     * Requirements:\n     * - `_poolId` must exists in the Pool[] array\n     */\n    function getUserBalance(uint _poolId, address _address) external view validPool(_poolId) returns (uint) {\n        return usersInPool[_poolId][_address].balance;\n    }\n\n    /**\n     * @dev Return the total balance of the pool _poolId\n     *\n     * @param _poolId index of the pool in the Pool[] array\n     *\n     * Requirements:\n     * - `_poolId` must exists in the Pool[] array\n     */\n    function getPoolBalance(uint _poolId) external view validPool(_poolId) returns (uint) {\n        return pools[_poolId].totalStaked;\n    }\n\n    function getRewardPrice(uint _poolId) external view validPool(_poolId) returns (int) {\n        return pools[_poolId].rewardTokenDataFeed.getLatestPrice();\n    }\n\n    function getTokenPrice(uint _poolId) external view validPool(_poolId) returns (int) {\n        return pools[_poolId].stakingTokenDataFeed.getLatestPrice();\n    }\n\n    // todo garder ? permettrait de savoir si la pool a assez de reward token\n    function getRemainingRewards(uint _poolId) external view validPool(_poolId) onlyOwner returns (uint) {\n        return pools[_poolId].rewardToken.balanceOf(address(this));\n    }\n\n}",
  "sourcePath": "/Users/mickael/Perso/Developpement/Alyra/staking-app/contracts/Staking.sol",
  "compiler": {
    "name": "solc",
    "version": "0.8.13+commit.abaa5c0e.Emscripten.clang"
  },
  "schemaVersion": "3.4.7",
  "updatedAt": "2022-05-12T13:49:28.080Z",
  "devdoc": {
    "kind": "dev",
    "methods": {
      "claim(uint256)": {
        "details": "Claim rewards from the pool _poolId",
        "params": {
          "_poolId": "index of the pool in the Pool[] array Emit a Claimed event Requirements: - `_poolId` must exists in the Pool[] array - `msg.sender` must have rewards to claim for"
        }
      },
      "createPool(address,address,uint256,address,address)": {
        "details": "Create a new pool",
        "params": {
          "_rewardPerBlock": "how much _tokenReward will be distributed per block",
          "_rewardTokenDataFeedAddress": "chainlink datafeed address to get the price of the _tokenReward Emit a PoolCreated event Requirements: - `msg.sender` must be the owner - `_tokenToStake` must be a valid address - `_tokenReward` must be a valid address - `_rewardTokenDataFeedAddress` must be a valid address - `_rewardPerBlock` must be greater than zero",
          "_tokenReward": "address of the rewarded token",
          "_tokenToStake": "address of the staked token"
        }
      },
      "deposit(uint256,uint256)": {
        "details": "Deposit some token in the pool _poolId and update the rewards calculation",
        "params": {
          "_amount": "Number of token user want to deposit in the pool Emit a Staked event Requirements: - `_poolId` must exists in the Pool[] array - `_amount` must be greater than zero - `msg.sender` must own enough token to deposit",
          "_poolId": "index of the pool in the Pool[] array"
        }
      },
      "getPoolBalance(uint256)": {
        "details": "Return the total balance of the pool _poolId",
        "params": {
          "_poolId": "index of the pool in the Pool[] array Requirements: - `_poolId` must exists in the Pool[] array"
        }
      },
      "getRewardToClaim(uint256)": {
        "details": "Return the number of claimable tokens from the pool _poolId",
        "params": {
          "_poolId": "index of the pool in the Pool[] array Requirements: - `_poolId` must exists in the Pool[] array"
        }
      },
      "getUserBalance(uint256,address)": {
        "details": "Return the user balance of deposited token in the pool _poolId",
        "params": {
          "_address": "user address Requirements: - `_poolId` must exists in the Pool[] array",
          "_poolId": "index of the pool in the Pool[] array"
        }
      },
      "owner()": {
        "details": "Returns the address of the current owner."
      },
      "renounceOwnership()": {
        "details": "Leaves the contract without owner. It will not be possible to call `onlyOwner` functions anymore. Can only be called by the current owner. NOTE: Renouncing ownership will leave the contract without an owner, thereby removing any functionality that is only available to the owner."
      },
      "transferOwnership(address)": {
        "details": "Transfers ownership of the contract to a new account (`newOwner`). Can only be called by the current owner."
      },
      "withdraw(uint256,uint256)": {
        "details": "Withdraw some token from the pool _poolId, update the rewards calculation and claim reward if possible",
        "params": {
          "_amount": "Number of token user want to withdraw from the pool Emit a Withdrawn event Requirements: - `_poolId` must exists in the Pool[] array - `_amount` must be greater than zero - `msg.sender` must have enough token in this pool",
          "_poolId": "index of the pool in the Pool[] array"
        }
      }
    },
    "stateVariables": {
      "usersInPool": {
        "details": "Mapping of Users in a pool"
      }
    },
    "version": 1
  },
  "userdoc": {
    "kind": "user",
    "methods": {
      "claim(uint256)": {
        "notice": "Claim rewards"
      },
      "deposit(uint256,uint256)": {
        "notice": "Deposit some tokens in a pool"
      },
      "pools(uint256)": {
        "notice": "List of pool"
      },
      "withdraw(uint256,uint256)": {
        "notice": "Withdraw some tokens from the pool"
      }
    },
    "version": 1
  }
}