{
  "contractName": "Staking",
  "abi": [
    {
      "inputs": [
        {
          "internalType": "uint256",
          "name": "_totalReward",
          "type": "uint256"
        },
        {
          "internalType": "address",
          "name": "_stakingToken",
          "type": "address"
        }
      ],
      "stateMutability": "nonpayable",
      "type": "constructor"
    },
    {
      "anonymous": false,
      "inputs": [
        {
          "indexed": true,
          "internalType": "address",
          "name": "previousOwner",
          "type": "address"
        },
        {
          "indexed": true,
          "internalType": "address",
          "name": "newOwner",
          "type": "address"
        }
      ],
      "name": "OwnershipTransferred",
      "type": "event"
    },
    {
      "inputs": [],
      "name": "owner",
      "outputs": [
        {
          "internalType": "address",
          "name": "",
          "type": "address"
        }
      ],
      "stateMutability": "view",
      "type": "function"
    },
    {
      "inputs": [],
      "name": "renounceOwnership",
      "outputs": [],
      "stateMutability": "nonpayable",
      "type": "function"
    },
    {
      "inputs": [],
      "name": "totalStaked",
      "outputs": [
        {
          "internalType": "uint256",
          "name": "",
          "type": "uint256"
        }
      ],
      "stateMutability": "view",
      "type": "function"
    },
    {
      "inputs": [
        {
          "internalType": "address",
          "name": "newOwner",
          "type": "address"
        }
      ],
      "name": "transferOwnership",
      "outputs": [],
      "stateMutability": "nonpayable",
      "type": "function"
    },
    {
      "inputs": [
        {
          "internalType": "address",
          "name": "_tokenToStake",
          "type": "address"
        },
        {
          "internalType": "address",
          "name": "_tokenReward",
          "type": "address"
        },
        {
          "internalType": "uint256",
          "name": "_rewardRate",
          "type": "uint256"
        }
      ],
      "name": "createPool",
      "outputs": [],
      "stateMutability": "nonpayable",
      "type": "function"
    },
    {
      "inputs": [
        {
          "internalType": "uint256",
          "name": "_amount",
          "type": "uint256"
        }
      ],
      "name": "deposit",
      "outputs": [],
      "stateMutability": "nonpayable",
      "type": "function"
    },
    {
      "inputs": [
        {
          "internalType": "uint256",
          "name": "_amount",
          "type": "uint256"
        }
      ],
      "name": "withdraw",
      "outputs": [],
      "stateMutability": "nonpayable",
      "type": "function"
    },
    {
      "inputs": [],
      "name": "claim",
      "outputs": [],
      "stateMutability": "nonpayable",
      "type": "function"
    },
    {
      "inputs": [],
      "name": "getRewardToClaim",
      "outputs": [
        {
          "internalType": "uint256",
          "name": "",
          "type": "uint256"
        }
      ],
      "stateMutability": "view",
      "type": "function"
    },
    {
      "inputs": [],
      "name": "getRemainingRewards",
      "outputs": [
        {
          "internalType": "uint256",
          "name": "",
          "type": "uint256"
        }
      ],
      "stateMutability": "view",
      "type": "function"
    },
    {
      "inputs": [],
      "name": "getUpdatedRewardPerToken",
      "outputs": [
        {
          "internalType": "uint256",
          "name": "",
          "type": "uint256"
        }
      ],
      "stateMutability": "nonpayable",
      "type": "function"
    }
  ],
  "bytecode": "0x60806040523480156200001157600080fd5b50604051620030f6380380620030f68339818101604052810190620000379190620002aa565b62000069620000546200012b640100000000026401000000009004565b62000133640100000000026401000000009004565b816040516200007890620001f7565b62000084919062000302565b604051809103906000f080158015620000a1573d6000803e3d6000fd5b50600560006101000a81548173ffffffffffffffffffffffffffffffffffffffff021916908373ffffffffffffffffffffffffffffffffffffffff16021790555080600660006101000a81548173ffffffffffffffffffffffffffffffffffffffff021916908373ffffffffffffffffffffffffffffffffffffffff16021790555050506200031f565b600033905090565b60008060009054906101000a900473ffffffffffffffffffffffffffffffffffffffff169050816000806101000a81548173ffffffffffffffffffffffffffffffffffffffff021916908373ffffffffffffffffffffffffffffffffffffffff1602179055508173ffffffffffffffffffffffffffffffffffffffff168173ffffffffffffffffffffffffffffffffffffffff167f8be0079c531659141344cd1fd0a4f28419497f9722a3daafe3b4186f6b6457e060405160405180910390a35050565b6117e0806200191683390190565b600080fd5b6000819050919050565b6200021f816200020a565b81146200022b57600080fd5b50565b6000815190506200023f8162000214565b92915050565b600073ffffffffffffffffffffffffffffffffffffffff82169050919050565b6000620002728262000245565b9050919050565b620002848162000265565b81146200029057600080fd5b50565b600081519050620002a48162000279565b92915050565b60008060408385031215620002c457620002c362000205565b5b6000620002d4858286016200022e565b9250506020620002e78582860162000293565b9150509250929050565b620002fc816200020a565b82525050565b6000602082019050620003196000830184620002f1565b92915050565b6115e7806200032f6000396000f3fe608060405234801561001057600080fd5b50600436106100c6576000357c010000000000000000000000000000000000000000000000000000000090048063817b1cd21161008e578063817b1cd2146101355780638da5cb5b14610153578063af7f9a9614610171578063b6b55f251461018f578063c946e5dc146101ab578063f2fde38b146101c9576100c6565b8063179a1fb3146100cb5780632e1a7d4d146100e95780634e71d92d1461010557806351810fb51461010f578063715018a61461012b575b600080fd5b6100d36101e5565b6040516100e09190610ec8565b60405180910390f35b61010360048036038101906100fe9190610f14565b6101f7565b005b61010d6103d0565b005b61012960048036038101906101249190610f9f565b61045f565b005b6101336104e0565b005b61013d610568565b60405161014a9190610ec8565b60405180910390f35b61015b61056e565b6040516101689190611001565b60405180910390f35b610179610597565b6040516101869190610ec8565b60405180910390f35b6101a960048036038101906101a49190610f14565b6105e1565b005b6101b361086c565b6040516101c09190610ec8565b60405180910390f35b6101e360048036038101906101de919061101c565b61092b565b005b60006101ef610a22565b600354905090565b600460003373ffffffffffffffffffffffffffffffffffffffff1673ffffffffffffffffffffffffffffffffffffffff1681526020019081526020016000206000015481111561027c576040517f08c379a0000000000000000000000000000000000000000000000000000000008152600401610273906110a6565b60405180910390fd5b610284610a22565b80600460003373ffffffffffffffffffffffffffffffffffffffff1673ffffffffffffffffffffffffffffffffffffffff16815260200190815260200160002060000160008282546102d691906110f5565b9250508190555080600160008282546102ef91906110f5565b925050819055506102fe610ad0565b6000600660009054906101000a900473ffffffffffffffffffffffffffffffffffffffff1673ffffffffffffffffffffffffffffffffffffffff1663a9059cbb33846040518363ffffffff167c0100000000000000000000000000000000000000000000000000000000028152600401610379929190611129565b6020604051808303816000875af1158015610398573d6000803e3d6000fd5b505050506040513d601f19601f820116820180604052508101906103bc919061118a565b9050806103cc576103cb6111b7565b5b5050565b6000600460003373ffffffffffffffffffffffffffffffffffffffff1673ffffffffffffffffffffffffffffffffffffffff1681526020019081526020016000206001015411610455576040517f08c379a000000000000000000000000000000000000000000000000000000000815260040161044c90611232565b60405180910390fd5b61045d610ad0565b565b610467610c7d565b73ffffffffffffffffffffffffffffffffffffffff1661048561056e565b73ffffffffffffffffffffffffffffffffffffffff16146104db576040517f08c379a00000000000000000000000000000000000000000000000000000000081526004016104d29061129e565b60405180910390fd5b505050565b6104e8610c7d565b73ffffffffffffffffffffffffffffffffffffffff1661050661056e565b73ffffffffffffffffffffffffffffffffffffffff161461055c576040517f08c379a00000000000000000000000000000000000000000000000000000000081526004016105539061129e565b60405180910390fd5b6105666000610c85565b565b60015481565b60008060009054906101000a900473ffffffffffffffffffffffffffffffffffffffff16905090565b6000600460003373ffffffffffffffffffffffffffffffffffffffff1673ffffffffffffffffffffffffffffffffffffffff16815260200190815260200160002060010154905090565b60008111610624576040517f08c379a000000000000000000000000000000000000000000000000000000000815260040161061b9061130a565b60405180910390fd5b600660009054906101000a900473ffffffffffffffffffffffffffffffffffffffff1673ffffffffffffffffffffffffffffffffffffffff166370a08231336040518263ffffffff167c010000000000000000000000000000000000000000000000000000000002815260040161069b9190611001565b602060405180830381865afa1580156106b8573d6000803e3d6000fd5b505050506040513d601f19601f820116820180604052508101906106dc919061133f565b81111561071e576040517f08c379a0000000000000000000000000000000000000000000000000000000008152600401610715906113b8565b60405180910390fd5b610726610a22565b806001600082825461073891906113d8565b9250508190555080600460003373ffffffffffffffffffffffffffffffffffffffff1673ffffffffffffffffffffffffffffffffffffffff168152602001908152602001600020600001600082825461079191906113d8565b925050819055506000600660009054906101000a900473ffffffffffffffffffffffffffffffffffffffff1673ffffffffffffffffffffffffffffffffffffffff166323b872dd3330856040518463ffffffff167c01000000000000000000000000000000000000000000000000000000000281526004016108159392919061142e565b6020604051808303816000875af1158015610834573d6000803e3d6000fd5b505050506040513d601f19601f82011682018060405250810190610858919061118a565b905080610868576108676111b7565b5b5050565b6000600560009054906101000a900473ffffffffffffffffffffffffffffffffffffffff1673ffffffffffffffffffffffffffffffffffffffff166370a08231306040518263ffffffff167c01000000000000000000000000000000000000000000000000000000000281526004016108e59190611001565b602060405180830381865afa158015610902573d6000803e3d6000fd5b505050506040513d601f19601f82011682018060405250810190610926919061133f565b905090565b610933610c7d565b73ffffffffffffffffffffffffffffffffffffffff1661095161056e565b73ffffffffffffffffffffffffffffffffffffffff16146109a7576040517f08c379a000000000000000000000000000000000000000000000000000000000815260040161099e9061129e565b60405180910390fd5b600073ffffffffffffffffffffffffffffffffffffffff168173ffffffffffffffffffffffffffffffffffffffff1603610a16576040517f08c379a0000000000000000000000000000000000000000000000000000000008152600401610a0d906114d7565b60405180910390fd5b610a1f81610c85565b50565b610a2a610d49565b60038190555043600281905550610a3f610dab565b600460003373ffffffffffffffffffffffffffffffffffffffff1673ffffffffffffffffffffffffffffffffffffffff16815260200190815260200160002060010181905550600354600460003373ffffffffffffffffffffffffffffffffffffffff1673ffffffffffffffffffffffffffffffffffffffff16815260200190815260200160002060030181905550565b6000600460003373ffffffffffffffffffffffffffffffffffffffff1673ffffffffffffffffffffffffffffffffffffffff168152602001908152602001600020600101541115610c7b576000600460003373ffffffffffffffffffffffffffffffffffffffff1673ffffffffffffffffffffffffffffffffffffffff1681526020019081526020016000206001015490506000600460003373ffffffffffffffffffffffffffffffffffffffff1673ffffffffffffffffffffffffffffffffffffffff168152602001908152602001600020600101819055506000600560009054906101000a900473ffffffffffffffffffffffffffffffffffffffff1673ffffffffffffffffffffffffffffffffffffffff1663a9059cbb33846040518363ffffffff167c0100000000000000000000000000000000000000000000000000000000028152600401610c25929190611129565b6020604051808303816000875af1158015610c44573d6000803e3d6000fd5b505050506040513d601f19601f82011682018060405250810190610c68919061118a565b905080610c7857610c776111b7565b5b50505b565b600033905090565b60008060009054906101000a900473ffffffffffffffffffffffffffffffffffffffff169050816000806101000a81548173ffffffffffffffffffffffffffffffffffffffff021916908373ffffffffffffffffffffffffffffffffffffffff1602179055508173ffffffffffffffffffffffffffffffffffffffff168173ffffffffffffffffffffffffffffffffffffffff167f8be0079c531659141344cd1fd0a4f28419497f9722a3daafe3b4186f6b6457e060405160405180910390a35050565b60008060015403610d5e576003549050610da8565b600154670de0b6b3a7640000600a60025443610d7a91906110f5565b610d8491906114f7565b610d8e91906114f7565b610d989190611580565b600354610da591906113d8565b90505b90565b6000600460003373ffffffffffffffffffffffffffffffffffffffff1673ffffffffffffffffffffffffffffffffffffffff16815260200190815260200160002060010154670de0b6b3a7640000600460003373ffffffffffffffffffffffffffffffffffffffff1673ffffffffffffffffffffffffffffffffffffffff16815260200190815260200160002060030154600354610e4991906110f5565b600460003373ffffffffffffffffffffffffffffffffffffffff1673ffffffffffffffffffffffffffffffffffffffff16815260200190815260200160002060000154610e9691906114f7565b610ea09190611580565b610eaa91906113d8565b905090565b6000819050919050565b610ec281610eaf565b82525050565b6000602082019050610edd6000830184610eb9565b92915050565b600080fd5b610ef181610eaf565b8114610efc57600080fd5b50565b600081359050610f0e81610ee8565b92915050565b600060208284031215610f2a57610f29610ee3565b5b6000610f3884828501610eff565b91505092915050565b600073ffffffffffffffffffffffffffffffffffffffff82169050919050565b6000610f6c82610f41565b9050919050565b610f7c81610f61565b8114610f8757600080fd5b50565b600081359050610f9981610f73565b92915050565b600080600060608486031215610fb857610fb7610ee3565b5b6000610fc686828701610f8a565b9350506020610fd786828701610f8a565b9250506040610fe886828701610eff565b9150509250925092565b610ffb81610f61565b82525050565b60006020820190506110166000830184610ff2565b92915050565b60006020828403121561103257611031610ee3565b5b600061104084828501610f8a565b91505092915050565b600082825260208201905092915050565b7f4e6f7420656e6f75676820746f6b656e20746f20776964746864726177000000600082015250565b6000611090601d83611049565b915061109b8261105a565b602082019050919050565b600060208201905081810360008301526110bf81611083565b9050919050565b7f4e487b7100000000000000000000000000000000000000000000000000000000600052601160045260246000fd5b600061110082610eaf565b915061110b83610eaf565b92508282101561111e5761111d6110c6565b5b828203905092915050565b600060408201905061113e6000830185610ff2565b61114b6020830184610eb9565b9392505050565b60008115159050919050565b61116781611152565b811461117257600080fd5b50565b6000815190506111848161115e565b92915050565b6000602082840312156111a05761119f610ee3565b5b60006111ae84828501611175565b91505092915050565b7f4e487b7100000000000000000000000000000000000000000000000000000000600052600160045260246000fd5b7f4e6f7468696e6720746f20636c61696d00000000000000000000000000000000600082015250565b600061121c601083611049565b9150611227826111e6565b602082019050919050565b6000602082019050818103600083015261124b8161120f565b9050919050565b7f4f776e61626c653a2063616c6c6572206973206e6f7420746865206f776e6572600082015250565b6000611288602083611049565b915061129382611252565b602082019050919050565b600060208201905081810360008301526112b78161127b565b9050919050565b7f596f75206d757374206465706f73697420746f6b656e73000000000000000000600082015250565b60006112f4601783611049565b91506112ff826112be565b602082019050919050565b60006020820190508181036000830152611323816112e7565b9050919050565b60008151905061133981610ee8565b92915050565b60006020828403121561135557611354610ee3565b5b60006113638482850161132a565b91505092915050565b7f596f7520646f6e2774206861766520656e6f75676820746f6b656e0000000000600082015250565b60006113a2601b83611049565b91506113ad8261136c565b602082019050919050565b600060208201905081810360008301526113d181611395565b9050919050565b60006113e382610eaf565b91506113ee83610eaf565b9250827fffffffffffffffffffffffffffffffffffffffffffffffffffffffffffffffff03821115611423576114226110c6565b5b828201905092915050565b60006060820190506114436000830186610ff2565b6114506020830185610ff2565b61145d6040830184610eb9565b949350505050565b7f4f776e61626c653a206e6577206f776e657220697320746865207a65726f206160008201527f6464726573730000000000000000000000000000000000000000000000000000602082015250565b60006114c1602683611049565b91506114cc82611465565b604082019050919050565b600060208201905081810360008301526114f0816114b4565b9050919050565b600061150282610eaf565b915061150d83610eaf565b9250817fffffffffffffffffffffffffffffffffffffffffffffffffffffffffffffffff0483118215151615611546576115456110c6565b5b828202905092915050565b7f4e487b7100000000000000000000000000000000000000000000000000000000600052601260045260246000fd5b600061158b82610eaf565b915061159683610eaf565b9250826115a6576115a5611551565b5b82820490509291505056fea26469706673582212200d03a49114b9f02a6929914e74a97167220ebbe49eb55150601e017436226f6364736f6c634300080d003360806040523480156200001157600080fd5b50604051620017e0380380620017e083398181016040528101906200003791906200037d565b6040518060400160405280600c81526020017f52657761726420546f6b656e00000000000000000000000000000000000000008152506040518060400160405280600381526020017f52575400000000000000000000000000000000000000000000000000000000008152508160039080519060200190620000bb9291906200028d565b508060049080519060200190620000d49291906200028d565b505050620000f23382620000f9640100000000026401000000009004565b5062000550565b600073ffffffffffffffffffffffffffffffffffffffff168273ffffffffffffffffffffffffffffffffffffffff16036200016b576040517f08c379a0000000000000000000000000000000000000000000000000000000008152600401620001629062000410565b60405180910390fd5b620001886000838362000283640100000000026401000000009004565b80600260008282546200019c919062000461565b92505081905550806000808473ffffffffffffffffffffffffffffffffffffffff1673ffffffffffffffffffffffffffffffffffffffff1681526020019081526020016000206000828254620001f3919062000461565b925050819055508173ffffffffffffffffffffffffffffffffffffffff16600073ffffffffffffffffffffffffffffffffffffffff167fddf252ad1be2c89b69c2b068fc378daa952ba7f163c4a11628f55a4df523b3ef836040516200025a9190620004cf565b60405180910390a36200027f6000838362000288640100000000026401000000009004565b5050565b505050565b505050565b8280546200029b906200051b565b90600052602060002090601f016020900481019282620002bf57600085556200030b565b82601f10620002da57805160ff19168380011785556200030b565b828001600101855582156200030b579182015b828111156200030a578251825591602001919060010190620002ed565b5b5090506200031a91906200031e565b5090565b5b80821115620003395760008160009055506001016200031f565b5090565b600080fd5b6000819050919050565b620003578162000342565b81146200036357600080fd5b50565b60008151905062000377816200034c565b92915050565b6000602082840312156200039657620003956200033d565b5b6000620003a68482850162000366565b91505092915050565b600082825260208201905092915050565b7f45524332303a206d696e7420746f20746865207a65726f206164647265737300600082015250565b6000620003f8601f83620003af565b91506200040582620003c0565b602082019050919050565b600060208201905081810360008301526200042b81620003e9565b9050919050565b7f4e487b7100000000000000000000000000000000000000000000000000000000600052601160045260246000fd5b60006200046e8262000342565b91506200047b8362000342565b9250827fffffffffffffffffffffffffffffffffffffffffffffffffffffffffffffffff03821115620004b357620004b262000432565b5b828201905092915050565b620004c98162000342565b82525050565b6000602082019050620004e66000830184620004be565b92915050565b7f4e487b7100000000000000000000000000000000000000000000000000000000600052602260045260246000fd5b600060028204905060018216806200053457607f821691505b6020821081036200054a5762000549620004ec565b5b50919050565b61128080620005606000396000f3fe608060405234801561001057600080fd5b50600436106100c6576000357c010000000000000000000000000000000000000000000000000000000090048063395093511161008e578063395093511461018557806370a08231146101b557806395d89b41146101e5578063a457c2d714610203578063a9059cbb14610233578063dd62ed3e14610263576100c6565b806306fdde03146100cb578063095ea7b3146100e957806318160ddd1461011957806323b872dd14610137578063313ce56714610167575b600080fd5b6100d3610293565b6040516100e09190610b3b565b60405180910390f35b61010360048036038101906100fe9190610bf6565b610325565b6040516101109190610c51565b60405180910390f35b610121610348565b60405161012e9190610c7b565b60405180910390f35b610151600480360381019061014c9190610c96565b610352565b60405161015e9190610c51565b60405180910390f35b61016f610381565b60405161017c9190610d05565b60405180910390f35b61019f600480360381019061019a9190610bf6565b61038a565b6040516101ac9190610c51565b60405180910390f35b6101cf60048036038101906101ca9190610d20565b6103c1565b6040516101dc9190610c7b565b60405180910390f35b6101ed610409565b6040516101fa9190610b3b565b60405180910390f35b61021d60048036038101906102189190610bf6565b61049b565b60405161022a9190610c51565b60405180910390f35b61024d60048036038101906102489190610bf6565b610512565b60405161025a9190610c51565b60405180910390f35b61027d60048036038101906102789190610d4d565b610535565b60405161028a9190610c7b565b60405180910390f35b6060600380546102a290610dbc565b80601f01602080910402602001604051908101604052809291908181526020018280546102ce90610dbc565b801561031b5780601f106102f05761010080835404028352916020019161031b565b820191906000526020600020905b8154815290600101906020018083116102fe57829003601f168201915b5050505050905090565b6000806103306105bc565b905061033d8185856105c4565b600191505092915050565b6000600254905090565b60008061035d6105bc565b905061036a85828561078d565b610375858585610819565b60019150509392505050565b60006012905090565b6000806103956105bc565b90506103b68185856103a78589610535565b6103b19190610e1c565b6105c4565b600191505092915050565b60008060008373ffffffffffffffffffffffffffffffffffffffff1673ffffffffffffffffffffffffffffffffffffffff168152602001908152602001600020549050919050565b60606004805461041890610dbc565b80601f016020809104026020016040519081016040528092919081815260200182805461044490610dbc565b80156104915780601f1061046657610100808354040283529160200191610491565b820191906000526020600020905b81548152906001019060200180831161047457829003601f168201915b5050505050905090565b6000806104a66105bc565b905060006104b48286610535565b9050838110156104f9576040517f08c379a00000000000000000000000000000000000000000000000000000000081526004016104f090610ee4565b60405180910390fd5b61050682868684036105c4565b60019250505092915050565b60008061051d6105bc565b905061052a818585610819565b600191505092915050565b6000600160008473ffffffffffffffffffffffffffffffffffffffff1673ffffffffffffffffffffffffffffffffffffffff16815260200190815260200160002060008373ffffffffffffffffffffffffffffffffffffffff1673ffffffffffffffffffffffffffffffffffffffff16815260200190815260200160002054905092915050565b600033905090565b600073ffffffffffffffffffffffffffffffffffffffff168373ffffffffffffffffffffffffffffffffffffffff1603610633576040517f08c379a000000000000000000000000000000000000000000000000000000000815260040161062a90610f76565b60405180910390fd5b600073ffffffffffffffffffffffffffffffffffffffff168273ffffffffffffffffffffffffffffffffffffffff16036106a2576040517f08c379a000000000000000000000000000000000000000000000000000000000815260040161069990611008565b60405180910390fd5b80600160008573ffffffffffffffffffffffffffffffffffffffff1673ffffffffffffffffffffffffffffffffffffffff16815260200190815260200160002060008473ffffffffffffffffffffffffffffffffffffffff1673ffffffffffffffffffffffffffffffffffffffff168152602001908152602001600020819055508173ffffffffffffffffffffffffffffffffffffffff168373ffffffffffffffffffffffffffffffffffffffff167f8c5be1e5ebec7d5bd14f71427d1e84f3dd0314c0f7b2291e5b200ac8c7c3b925836040516107809190610c7b565b60405180910390a3505050565b60006107998484610535565b90507fffffffffffffffffffffffffffffffffffffffffffffffffffffffffffffffff81146108135781811015610805576040517f08c379a00000000000000000000000000000000000000000000000000000000081526004016107fc90611074565b60405180910390fd5b61081284848484036105c4565b5b50505050565b600073ffffffffffffffffffffffffffffffffffffffff168373ffffffffffffffffffffffffffffffffffffffff1603610888576040517f08c379a000000000000000000000000000000000000000000000000000000000815260040161087f90611106565b60405180910390fd5b600073ffffffffffffffffffffffffffffffffffffffff168273ffffffffffffffffffffffffffffffffffffffff16036108f7576040517f08c379a00000000000000000000000000000000000000000000000000000000081526004016108ee90611198565b60405180910390fd5b610902838383610a98565b60008060008573ffffffffffffffffffffffffffffffffffffffff1673ffffffffffffffffffffffffffffffffffffffff16815260200190815260200160002054905081811015610988576040517f08c379a000000000000000000000000000000000000000000000000000000000815260040161097f9061122a565b60405180910390fd5b8181036000808673ffffffffffffffffffffffffffffffffffffffff1673ffffffffffffffffffffffffffffffffffffffff16815260200190815260200160002081905550816000808573ffffffffffffffffffffffffffffffffffffffff1673ffffffffffffffffffffffffffffffffffffffff1681526020019081526020016000206000828254610a1b9190610e1c565b925050819055508273ffffffffffffffffffffffffffffffffffffffff168473ffffffffffffffffffffffffffffffffffffffff167fddf252ad1be2c89b69c2b068fc378daa952ba7f163c4a11628f55a4df523b3ef84604051610a7f9190610c7b565b60405180910390a3610a92848484610a9d565b50505050565b505050565b505050565b600081519050919050565b600082825260208201905092915050565b60005b83811015610adc578082015181840152602081019050610ac1565b83811115610aeb576000848401525b50505050565b6000601f19601f8301169050919050565b6000610b0d82610aa2565b610b178185610aad565b9350610b27818560208601610abe565b610b3081610af1565b840191505092915050565b60006020820190508181036000830152610b558184610b02565b905092915050565b600080fd5b600073ffffffffffffffffffffffffffffffffffffffff82169050919050565b6000610b8d82610b62565b9050919050565b610b9d81610b82565b8114610ba857600080fd5b50565b600081359050610bba81610b94565b92915050565b6000819050919050565b610bd381610bc0565b8114610bde57600080fd5b50565b600081359050610bf081610bca565b92915050565b60008060408385031215610c0d57610c0c610b5d565b5b6000610c1b85828601610bab565b9250506020610c2c85828601610be1565b9150509250929050565b60008115159050919050565b610c4b81610c36565b82525050565b6000602082019050610c666000830184610c42565b92915050565b610c7581610bc0565b82525050565b6000602082019050610c906000830184610c6c565b92915050565b600080600060608486031215610caf57610cae610b5d565b5b6000610cbd86828701610bab565b9350506020610cce86828701610bab565b9250506040610cdf86828701610be1565b9150509250925092565b600060ff82169050919050565b610cff81610ce9565b82525050565b6000602082019050610d1a6000830184610cf6565b92915050565b600060208284031215610d3657610d35610b5d565b5b6000610d4484828501610bab565b91505092915050565b60008060408385031215610d6457610d63610b5d565b5b6000610d7285828601610bab565b9250506020610d8385828601610bab565b9150509250929050565b7f4e487b7100000000000000000000000000000000000000000000000000000000600052602260045260246000fd5b60006002820490506001821680610dd457607f821691505b602082108103610de757610de6610d8d565b5b50919050565b7f4e487b7100000000000000000000000000000000000000000000000000000000600052601160045260246000fd5b6000610e2782610bc0565b9150610e3283610bc0565b9250827fffffffffffffffffffffffffffffffffffffffffffffffffffffffffffffffff03821115610e6757610e66610ded565b5b828201905092915050565b7f45524332303a2064656372656173656420616c6c6f77616e63652062656c6f7760008201527f207a65726f000000000000000000000000000000000000000000000000000000602082015250565b6000610ece602583610aad565b9150610ed982610e72565b604082019050919050565b60006020820190508181036000830152610efd81610ec1565b9050919050565b7f45524332303a20617070726f76652066726f6d20746865207a65726f2061646460008201527f7265737300000000000000000000000000000000000000000000000000000000602082015250565b6000610f60602483610aad565b9150610f6b82610f04565b604082019050919050565b60006020820190508181036000830152610f8f81610f53565b9050919050565b7f45524332303a20617070726f766520746f20746865207a65726f20616464726560008201527f7373000000000000000000000000000000000000000000000000000000000000602082015250565b6000610ff2602283610aad565b9150610ffd82610f96565b604082019050919050565b6000602082019050818103600083015261102181610fe5565b9050919050565b7f45524332303a20696e73756666696369656e7420616c6c6f77616e6365000000600082015250565b600061105e601d83610aad565b915061106982611028565b602082019050919050565b6000602082019050818103600083015261108d81611051565b9050919050565b7f45524332303a207472616e736665722066726f6d20746865207a65726f20616460008201527f6472657373000000000000000000000000000000000000000000000000000000602082015250565b60006110f0602583610aad565b91506110fb82611094565b604082019050919050565b6000602082019050818103600083015261111f816110e3565b9050919050565b7f45524332303a207472616e7366657220746f20746865207a65726f206164647260008201527f6573730000000000000000000000000000000000000000000000000000000000602082015250565b6000611182602383610aad565b915061118d82611126565b604082019050919050565b600060208201905081810360008301526111b181611175565b9050919050565b7f45524332303a207472616e7366657220616d6f756e742065786365656473206260008201527f616c616e63650000000000000000000000000000000000000000000000000000602082015250565b6000611214602683610aad565b915061121f826111b8565b604082019050919050565b6000602082019050818103600083015261124381611207565b905091905056fea2646970667358221220cc46897d504ad0ddc89c777cdedad5563f17704241385e7df6e18beb384e14a564736f6c634300080d0033",
  "immutableReferences": {},
  "source": "// SPDX-License-Identifier: MIT\npragma solidity 0.8.13;\n\nimport \"@openzeppelin/contracts/access/Ownable.sol\";\nimport \"@openzeppelin/contracts/token/ERC20/IERC20.sol\";\nimport \"./RewardToken.sol\";\n\ncontract Staking is Ownable {\n\n    uint constant BLOCK_DISTRIBUTION = 10; // todo valeure arbitraire,  dfinir\n\n    uint public totalStaked;\n    uint private lastUpdateBlock;\n    uint private rewardPerToken;\n\n    mapping( address => User ) private users;\n\n    RewardToken private rewardToken;\n    IERC20 private stakingToken;\n\n    struct User {\n        uint balance;\n        uint rewardBalance;\n        uint totalClaimedRewards;\n        uint rewardPerToken;\n    }\n\n    constructor( uint _totalReward, address _stakingToken ) {\n        rewardToken = new RewardToken(_totalReward);\n        stakingToken = IERC20(_stakingToken);\n    }\n\n//    constructor() {\n//        rewardToken = new MBToken(1000000);\n//        stakingToken = IERC20(0xd9145CCE52D386f254917e481eB44e9943F39138);\n//    }\n\n    function createPool( address _tokenToStake, address _tokenReward, uint _rewardRate ) external onlyOwner {\n\n    }\n\n    function deposit( uint _amount ) external {\n        require( _amount > 0, \"You must deposit tokens\");\n        require( _amount <= stakingToken.balanceOf(msg.sender), \"You don't have enough token\");\n\n        _updateRewards();\n\n        totalStaked += _amount;\n        users[msg.sender].balance += _amount;\n\n        bool success = stakingToken.transferFrom(msg.sender, address(this), _amount);\n        assert(success);\n    }\n\n    function withdraw( uint _amount ) external {\n        require(_amount <= users[msg.sender].balance, \"Not enough token to widthdraw\");\n\n        _updateRewards();\n\n        users[msg.sender].balance -= _amount;\n        totalStaked -= _amount;\n        _claimReward();\n\n        bool success = stakingToken.transfer( msg.sender, _amount );\n        assert(success);\n    }\n\n    function claim() external {\n        require(users[msg.sender].rewardBalance > 0, \"Nothing to claim\");\n        _claimReward();\n    }\n\n    function getRewardToClaim() external view returns (uint) {\n        return users[msg.sender].rewardBalance;\n    }\n\n    function _updateRewards() internal {\n        rewardPerToken = _getRewardPerToken();\n        lastUpdateBlock = block.number;\n        users[msg.sender].rewardBalance = _getRewardsEarnedLastPeriod();\n        users[msg.sender].rewardPerToken = rewardPerToken;\n    }\n\n    function _getRewardsEarnedLastPeriod() private view returns (uint) {\n        return ( users[msg.sender].balance * ( rewardPerToken - users[msg.sender].rewardPerToken ) / 1e18 ) + users[msg.sender].rewardBalance;\n    }\n\n    function _claimReward() internal {\n        if( users[msg.sender].rewardBalance > 0 ) {\n            uint rewardAmount = users[msg.sender].rewardBalance;\n            users[msg.sender].rewardBalance = 0;\n            bool success = rewardToken.transfer(msg.sender, rewardAmount);\n            assert(success);\n        }\n    }\n\n    function _getRewardPerToken() private view returns(uint) {\n        if( totalStaked == 0 ) {\n            return rewardPerToken;\n        }\n        else {\n            return rewardPerToken + (((block.number - lastUpdateBlock) * BLOCK_DISTRIBUTION * 1e18) / totalStaked );\n        }\n    }\n\n    function getRemainingRewards() external view returns (uint) {\n        return rewardToken.balanceOf(address(this));\n    }\n\n    function getUpdatedRewardPerToken() external returns (uint) {\n        _updateRewards();\n        return rewardPerToken;\n    }\n}",
  "sourcePath": "/Users/mickael/Perso/Developpement/Alyra/staking-app/contracts/Staking.sol",
  "compiler": {
    "name": "solc",
    "version": "0.8.13+commit.abaa5c0e.Emscripten.clang"
  },
  "schemaVersion": "3.4.7",
  "updatedAt": "2022-05-05T13:29:43.273Z",
  "devdoc": {
    "kind": "dev",
    "methods": {
      "owner()": {
        "details": "Returns the address of the current owner."
      },
      "renounceOwnership()": {
        "details": "Leaves the contract without owner. It will not be possible to call `onlyOwner` functions anymore. Can only be called by the current owner. NOTE: Renouncing ownership will leave the contract without an owner, thereby removing any functionality that is only available to the owner."
      },
      "transferOwnership(address)": {
        "details": "Transfers ownership of the contract to a new account (`newOwner`). Can only be called by the current owner."
      }
    },
    "version": 1
  },
  "userdoc": {
    "kind": "user",
    "methods": {},
    "version": 1
  }
}